:100000000C94A0020C94A20A0C947B0A0C94540A3F
:100010000C942D0A0C94C8020C94C8020C94060A85
:100020000C94C8020C94C8020C940A060C947C062A
:100030000C94C8020C94C8020C94C8020C94C80218
:100040000C94C8020C94C8020C94C8020C94C80208
:100050000C94C8020C94C8020C94C8020C94BC09FD
:100060000C94C8020C94C8020C94C8020C94C802E8
:100070000C94C8020C94C8020C94C8020C94C802D8
:100080000C94C8020C94C8020C94C8020C94C802C8
:100090000C94C8020C94C8020C94C8020C94C802B8
:1000A0000C94C8020C94C8020C94C802D208D5085B
:1000B000C408C808CE08F608F608F608D908DD080E
:1000C000E108E708EB08F608F108084AD73B3BCE01
:1000D000016E84BCBFFDC12F3D6C74319ABD568347
:1000E0003DDA3D00C77F11BED9E4BB4C3E916BAAFF
:1000F000AABE000000803F05A84CCDB2D44EB9384E
:1001000036A9020C50B9918688083CA6AAAA2ABE34
:10011000000000803F0664EC1B3C04BC163E3BE53F
:10012000B93CC93C37C29E5A3D660498083EEA690C
:10013000AAAA3E000000803F4F46460041424F556C
:1001400054004241545400205341564500204C4F26
:1001500041440020434C4541520020424C41434B16
:10016000002057484954450045444954204D4150CA
:100170000020524553455400204D455353414745B7
:10018000530020534B5900205354415455530020E1
:10019000434F4E54524153540020534F554E440048
:1001A00020454E454D4945530020414D4D4F0020BF
:1001B0004D454449002032442F33440053455454A4
:1001C000494E4753004E45572047414D45005B433C
:1001D0005D204445455445450056312E302020329F
:1001E000303138004152454E4100474F4E450045A1
:1001F0004D505459004F43544F004556494C004E02
:10020000495445005441555200524F424F004D450C
:10021000444900414D4D4F00C501BC01B501AF013E
:10022000A901A00199018F01870182017801710163
:10023000680161015A0153014D01470142013C012E
:10024000380100000000250028002B002E0031009E
:1002500000000000240027002A002D0030000404C4
:10026000040404030405020202020403020202025F
:100270000606060606060404020202040404080236
:10028000011040804010204080408008020401801E
:1002900040201002011080102040402013020E0266
:1002A00009020402FF01FA01F501EF01EA01E4018C
:1002B000D901CE01080B000202020100090400006E
:1002C00001020200000524001001052401010104BF
:1002D00024020605240600010705810310004009D9
:1002E000040100020A0000000705020240000007A6
:1002F0000583024000000403090412010002EF021A
:1003000001404123368000010102030141726475FE
:10031000696E6F204C4C430041726475696E6F20AA
:100320004C656F6E6172646F000000000000000099
:100330002F00000007000700147F147F14242A7F79
:100340002A1262640813233649552250000503001F
:1003500000001C2241000041221C0014083E081429
:1003600008083E08080000A0600008080808080007
:100370006060000020100804027F4141417F0000BE
:1003800000007F794949494F414949497F0F080891
:10039000087F4F494949797F49494979010101015C
:1003A0007F7F4949497F4F4949497F0036360000E0
:1003B00000563600000814224100141414141400CE
:1003C000412214080201510906324959513E7F0960
:1003D00009097F7F49494F787F414141407F414131
:1003E000633E7F494949417F090909017F414949E4
:1003F000797F0808087F00007F0000404040407F70
:100400007F08080F787F404040407F0107017F7FD1
:10041000017F407F7F4141417F7F0909090F7F4173
:1004200071417F7F0909790F4F4949497801017F5F
:1004300001017F4040407F1F7040701F7F4070402F
:100440007F780F080F780F087C080F71515D4547C2
:10045000007F41410002040810200041417F000458
:1004600002010204404040404014367736145C7666
:1004700077765C3E3622363E3AFD7FFD3AEB744499
:1004800074EB1FE87FC77C0E3B4F3B0ECE37FF3728
:10049000CE7F0804047800447D40004080847D00C5
:1004A0007F1028440000417F40007C041804787CC1
:1004B00008040478FC6E3F6EFC7E1A7E765C7EFF3C
:1004C000DBC3667E1E3C787E2070F820F87838B852
:1004D0004820A0B0F8B0A02048B83878F820F870CC
:1004E000202090E8E0F02868F86828F0E0E8902004
:1004F000081C3E7F000000FF0000007F3E1C080635
:100500007F017F01D5F08D14A1C881CFD9F1AF2033
:1005100000000000002300260029002C002F00000E
:1005200000000200090F0000030401000C0000009D
:1005300000000000000000000000000000001A1F82
:1005400011241FBECFEFDAE0DEBFCDBF12E0A0E086
:10055000B1E0E2E3F8E402C005900D92A638B107DD
:10056000D9F725E0A6E8B2E001C01D92A039B20794
:10057000E1F712E0C0EAD2E004C02197FE010E9438
:10058000F123CF39D107C9F70E9479100C941724B1
:100590000C94000020911704211103C08FEF9FEFEE
:1005A00008955FB7F89422E02093E9002091F200CB
:1005B00030E01216130614F421E030E0422FFC0163
:1005C00084E6415038F02898809316049091F10009
:1005D0009193F7CF2115310521F08091F200882306
:1005E00019F05FBFC90108958BE68093E800F9CF49
:1005F0002FB7F89483E08093E9009091E800892F69
:10060000807295FF04C09091F20080E4891B2FBF97
:100610000895CF92DF92EF92FF920F931F93CF93A3
:10062000DF936C017A018B01C0E0D0E0CE15DF05CD
:1006300081F0D8016D918D01D601ED91FC91019071
:10064000F081E02DC6010995892B11F02196EECF9E
:100650007E01C701DF91CF911F910F91FF90EF9025
:10066000DF90CF90089580917A0581110DC082E0CE
:100670008093760584E08093770510927905109237
:10068000780581E080937A0586E795E00895CF9319
:10069000DF931F92CDB7DEB76983DC01ED91FC914A
:1006A0000280F381E02D41E050E0BE016F5F7F4F9B
:1006B00009950F90DF91CF91089583E08093E90031
:1006C0008091F200882319F08AE38093E80008956E
:1006D0000E94F80290E00895CF93DF931F92CDB768
:1006E000DEB7FC018485958597FD05C02FEF3FEFB0
:1006F000358724870BC0CE0101960E94CA0201975C
:1007000019F4898190E002C08FEF9FEF0F90DF9185
:10071000CF9108950F931F93CF93DF931F92CDB77F
:10072000DEB78C01FC018485958597FF0EC0CE0154
:1007300001960E94CA02019719F4898190E002C0D3
:100740008FEF9FEFF80195878487F8018485958561
:100750000F90DF91CF911F910F910895FC01848537
:10076000958597FD0BC09FB7F89482E08093E900D0
:100770008091F2009FBF90E0019608959FB7F89492
:1007800082E08093E9008091F2009FBF90E008959D
:10079000089580E090E008950E940B248F929F922C
:1007A000AF92BF92CF92DF92EF92FF920F931F937F
:1007B000CF93DF936C017B018A018091160288231D
:1007C00009F45CC080911704882309F457C0809114
:1007D000150480FF05C08091E00082608093E000F6
:1007E000E801B12C8AEFA82E93E0892E2AE3922EFD
:1007F000209711F4BB20D9F10E94F80281110AC0A0
:10080000AA94AA20D9F161E070E080E090E00E9413
:100810007609EECF282F30E0C217D3070CF48C2FC7
:100820009FB7F8948092E9002091E80025FF1DC051
:10083000282F30E0C21BD30BF701815020F04191EB
:100840004093F100FACFE20EF31EBB2019F0909214
:10085000E8000AC08091E80085FD07C09092E8009A
:10086000BB24B394209709F0B12C9FBFC1CF5D98F2
:1008700084E6809325051016110644F081E090E08F
:10088000F6019383828380E090E001C0C801DF918C
:10089000CF911F910F91FF90EF90DF90CF90BF907D
:1008A000AF909F908F900895DF92EF92FF920F93F9
:1008B0001F93CF93DF93D82EF92EE42E062F10E04E
:1008C000C8010196880F0E943E1083E00E943E10EE
:1008D000CD2DDF2D0C0F1D1FC017D10789F0E7FEAE
:1008E00003C0FE01849101C088810E943E10F82E51
:1008F00080E00E943E108F2121968111EDCF01C032
:1009000081E0DF91CF911F910F91FF90EF90DF90E9
:100910000895DF92EF92FF920F931F93CF93DF938F
:10092000D82E8A017B01E40EF51EEB01CE15DF0502
:1009300071F0D7FE03C0FE01849101C088810E943E
:100940003E1021968111F2CF8FEF9FEF01C0C801B9
:10095000DF91CF911F910F91FF90EF90DF9008955D
:100960000F931F93CF93DF931F92CDB7DEB782E033
:10097000898342E450E064EB72E080E80E948904DD
:100980000E943303DC0112960D911C9113970115FF
:10099000110589F0D801ED91FC910280F381E02DE1
:1009A000BE016F5F7F4FC801099597FD04C0F80134
:1009B00000851185ECCF89810F90DF91CF911F9138
:1009C0000F910895FF920F931F93CF93DF9350E001
:1009D0004052510925E0249F8001259F100D1124CC
:1009E0009B016330710514F022E030E046E0220FF5
:1009F000331F4A95E1F7AC01C79714F046E350E086
:100A0000240F351FC0E0D0E040E050E0FC2EDA01BA
:100A1000A20FB31FAC5DBB4F60E070E0F801E60FC2
:100A2000F71FE75DFC4F849190E00F2C02C0959575
:100A300087950A94E2F7E82FEF70F4E0EF9FC0018A
:100A400011248E2B8373982F990F892B8575982FDE
:100A5000990F892B8C9311968C9311976F5F7F4F11
:100A6000129665307105D1F6405C5F4F2496403890
:100A7000510561F6DF91CF911F910F91FF9008957D
:100A80002F923F924F925F926F927F928F929F929E
:100A9000AF92BF92CF92DF92EF92FF920F931F938C
:100AA000CF93DF9300D01F92CDB7DEB76C015B010F
:100AB000F42E152F2983681B790B072E000C880B49
:100AC000990B0E94A1210E943F230E947021FA826B
:100AD0001B83062F10E01601200E311E2501401A3F
:100AE000510A80E2E82E90E6692E26E4722E3AE062
:100AF000832E912C0E94570E8823A1F1823411F489
:100B00008A8172C0813409F46EC0823541F48A81D1
:100B10009B81481659060CF1800F911F1BC084342D
:100B200039F48A819B81C816D906BCF4019712C09A
:100B30008C3441F48A819B81821593058CF0801B53
:100B4000910B08C0853571F48A819B818A159B05BC
:100B50003CF401969B838A8305C0BB82AA8202C0B3
:100B6000DB82CA82E0921B04E0921C0410921D04F6
:100B70006092180499819130F1F48A819B8164E636
:100B800070E00E94DD23CB01B4010E94DD23805D73
:100B9000809319048A819B81B4010E94DD23282F50
:100BA000CB01B4010E94DD23805D80931A04205D97
:100BB00020931B040FC08FE4809319048A819B81CA
:100BC000892B21F09EE490931A0404C070921B04B8
:100BD00070921A0448E154E060E084E20E94610FE0
:100BE0000E94C70F87CF8F2D0F900F900F90DF912E
:100BF000CF911F910F91FF90EF90DF90CF90BF901A
:100C0000AF909F908F907F906F905F904F903F90AC
:100C10002F9008951F920F920FB60F9211248F9369
:100C20009F938091E1009091E100937F9093E10088
:100C300083FF0FC01092E90091E09093EB001092B7
:100C4000EC0092E39093ED001092170498E09093DB
:100C5000F00082FF20C093E09093E9009091F200B1
:100C6000992319F09AE39093E80090912505992330
:100C700039F090912505915090932505992389F19C
:100C800090911604992339F0909116049150909305
:100C90001604992341F184FF10C08091E2008E7EFA
:100CA00081608093E2008091E1008F7E8093E1007B
:100CB000809115048E7E806111C080FF16C08091E6
:100CC000E2008E7E80618093E2008091E1008E7E62
:100CD0008093E100809115048E7E816080931504DD
:100CE00004C05D9ACDCF289AD6CF9F918F910F9057
:100CF0000FBE0F901F9018951F920F920FB60F9274
:100D00001124CF92DF92EF92FF920F931F932F93B4
:100D10003F934F935F936F937F938F939F93AF9383
:100D2000BF93EF93FF93CF93DF93CDB7DEB76C976D
:100D3000DEBFCDBF1092E9008091E80083FFFBC1C8
:100D400068E0CE0145960E946C1082EF8093E80027
:100D50008D8987FF05C09091E80090FFFCCF03C00C
:100D60009EEF9093E800982F907609F0C6C09E8978
:100D70004F89588D2F89F88C91110CC0803829F437
:100D8000809114048093F10002C01092F10010923F
:100D9000F10045C1913051F4811141C141305105FB
:100DA00009F03DC1809114048D7F0BC0933061F434
:100DB000811135C14130510509F031C180911404D0
:100DC0008260809314042BC1953049F48091E8002F
:100DD00080FFFCCF822F80688093E30020C1963093
:100DE00009F05EC00B8D1C8D22E01092E90010927C
:100DF000130410921204F21232C0109211041092D5
:100E000010040E94B00499E0BE016F5F7F4FDB01C8
:100E1000E92F1D92EA95E9F79983FA8291E09E8382
:100E200090EA98879AEF99872091120430911304E1
:100E3000275F3F4F3C832B838D831092E9001092F4
:100E4000130410921204109311040093100449E04B
:100E500050E080E00E9489040E94B004E0C010933A
:100E60001104009310040E943303DC0112960D91CB
:100E70001C9113970115110509F4BBC0D801ED9120
:100E8000FC910480F581E02DBE016B5E7F4FC801AF
:100E90000995009709F0C7C0F80100851185EACFD0
:100EA000973009F445C1983021F481E08093F10036
:100EB000B6C0993009F0B3C0837009F039C1ECE1D4
:100EC000F2E081E031E096E32081211109C08EE754
:100ED0008093EA001092EA008F89809317049FC0E4
:100EE0008093E9003093EB0021912093EC009093E4
:100EF000ED008F5F873041F7EACF8B8D9C8D10928C
:100F0000E90010921304109212049093110480933C
:100F10001004898D811153C08E899D89913A49F4BD
:100F2000813209F005C147E050E06FE072E080E0F7
:100F3000BBC0913209F0FCC0833269F48F89988D6F
:100F4000A0E0B0E080930B0290930C02A0930D02FE
:100F5000B0930E0264C0803269F48091E80082FF91
:100F6000FCCF67E08FE092E00E946C108BEF8093E3
:100F7000E80055C0823209F052C08F898093160272
:100F8000EEEFFFE7859194918B3F9C4D19F0E0E0E7
:100F9000F8E002C0EEEFFAE080910F0290911002AB
:100FA000A0911102B0911202803B9440A105B105BD
:100FB00009F09EC08091160280FF79C099C00E94FE
:100FC0003303FC01028113810115110509F4B0C03E
:100FD000D801ED91FC910190F081E02DBE016B5E96
:100FE0007F4FC801099581111AC0F801008511854C
:100FF000EBCFF1E0FF1609F44EC0F3E0FF1298C00A
:101000008F89882309F44AC0823089F440E860E17E
:1010100088E193E00E945404882309F489C08EEF8C
:101020008093E80088C018161906CCF381C081307F
:1010300029F440E86BE08CE093E0ECCF833009F0DA
:1010400077C00E943303DC011296ED90FC90139759
:101050008E010F5F1F4F6801E114F10479F0D70191
:10106000ED91FC910680F781E02DB801C70109954B
:10107000080F111DF701E084F184EECFD8011C9216
:10108000F60101900020E9F73197BF016C197D0945
:1010900040E0C601BFCF6AEF72E002C066EF72E0C7
:1010A000FB01449150E080E80E948904B8CFEE3FF4
:1010B0002AE0F20751F0808191818737A7E79A07EC
:1010C00021F09093FF0A8093FE0A87E797E79183C8
:1010D000808380916000809324059BE088E10FB6B7
:1010E000F894A895809360000FBE9093600097CF0E
:1010F000808191818737974709F091CFA89580919A
:101100006000886180936000809124058093600076
:10111000EE3FBAE0FB0739F08091FE0A9091FF0A9A
:10112000918380837CCF1092FF0A1092FE0A77CFC2
:1011300081E28093EB006C960FB6F894DEBF0FBE91
:10114000CDBFDF91CF91FF91EF91BF91AF919F9173
:101150008F917F916F915F914F913F912F911F914F
:101160000F91FF90EF90DF90CF900F900FBE0F90F8
:101170001F90189590E0FC013197EF30F105B0F524
:10118000EA5AFF4F0C94F123809180008F7703C0BF
:10119000809180008F7D80938000089580918000F1
:1011A000877FF9CF84B58F7702C084B58F7D84BDEA
:1011B0000895809190008F7707C0809190008F7D77
:1011C00003C080919000877F809390000895809164
:1011D000C0008F7703C08091C0008F7D8093C000D6
:1011E00008958091C200877F8093C20008953FB721
:1011F000F89480918C0590918D05A0918E05B09109
:101200008F0526B5A89B05C02F3F19F00196A11D9B
:10121000B11D3FBFBA2FA92F982F8827820F911D8C
:10122000A11DB11DBC01CD0142E0660F771F881FD3
:10123000991F4A95D1F7089508950895CF93DF93A4
:10124000282F30E0F901E15EFA4F8491F901E3586B
:10125000FD4FD491F901E25AFD4FC491CC2391F096
:1012600081110E94BA08EC2FF0E0EE0FFF1FEF5E35
:10127000FA4FA591B491EC91ED2381E090E021F437
:1012800080E002C080E090E0DF91CF9108951F934D
:10129000CF93DF93282F30E0F901E15EFA4F84917C
:1012A000F901E358FD4FD491F901E25AFD4FC49181
:1012B000CC23C1F0162F81110E94BA08EC2FF0E068
:1012C000EE0FFF1FEE5BFD4FA591B4919FB7F89411
:1012D000111104C08C91D095D82302C0EC91DE2B63
:1012E000DC939FBFDF91CF911F9108958F929F92C2
:1012F000AF92BF92CF92DF92EF92FF926B017C018F
:101300000E94F7084B015C01C114D104E104F1040F
:10131000F1F00E94F708DC01CB0188199909AA09AC
:10132000BB09883E9340A105B10570F321E0C21AC4
:10133000D108E108F10888EE880E83E0981EA11C10
:10134000B11CC114D104E104F10419F7DDCFFF9001
:10135000EF90DF90CF90BF90AF909F908F900895C7
:101360002FB7F894609188057091890580918A055E
:1013700090918B052FBF08951F920F920FB60F9279
:1013800011242F933F938F939F93AF93BF9380919B
:10139000880590918905A0918A05B0918B053091BF
:1013A000870523E0230F2D3720F40196A11DB11DE1
:1013B00005C026E8230F0296A11DB11D20938705C5
:1013C0008093880590938905A0938A05B0938B0537
:1013D00080918C0590918D05A0918E05B0918F051F
:1013E0000196A11DB11D80938C0590938D05A0934E
:1013F0008E05B0938F05BF91AF919F918F913F91D3
:101400002F910F900FBE0F901F9018951F920F9263
:101410000FB60F9211242F933F934F935F936F93C7
:101420007F938F939F93AF93BF93EF93FF93E0913D
:101430000801F09109010995FF91EF91BF91AF91DA
:101440009F918F917F916F915F914F913F912F91DC
:101450000F900FBE0F901F9018951F920F920FB60E
:101460000F9211242F933F934F935F936F937F932A
:101470008F939F93AF93BF93EF93FF93E0910601F8
:10148000F09107010995FF91EF91BF91AF919F9165
:101490008F917F916F915F914F913F912F910F901D
:1014A0000FBE0F901F9018951F920F920FB60F92BC
:1014B00011242F933F934F935F936F937F938F9359
:1014C0009F93AF93BF93EF93FF93E0910401F0914B
:1014D00005010995FF91EF91BF91AF919F918F9178
:1014E0007F916F915F914F913F912F910F900FBE20
:1014F0000F901F9018951F920F920FB60F92112404
:101500002F933F934F935F936F937F938F939F930B
:10151000AF93BF93EF93FF93E0910201F09103012A
:101520000995FF91EF91BF91AF919F918F917F911D
:101530006F915F914F913F912F910F900FBE0F9040
:101540001F9018951F920F920FB60F9211242F9390
:101550003F934F935F936F937F938F939F93AF933B
:10156000BF93EF93FF93E0910001F0910101099582
:10157000FF91EF91BF91AF919F918F917F916F916B
:101580005F914F913F912F910F900FBE0F901F9041
:1015900018950C94E01F0C94D81FEF92FF920F93B4
:1015A0001F93CF93DF93442321F0873328F086E302
:1015B00003C08D3208F08CE270E06052710995E052
:1015C000969F7001979FF00C112490E08C5D9B4FCB
:1015D00060E070E0562FDC018C01C0E0D0E0F70144
:1015E000EC0FFD1FE75DFC4F249130E0052E02C09B
:1015F000359527950A94E2F7E22FE370F8E0EF9F24
:10160000900111242E2B2171322F330F232B322FD7
:10161000330F232B322F330F232B442321F0F801D8
:10162000208321830AC02C9311962C931197129634
:101630002C93129713962C93139721960E5F1F4F9E
:101640001496C530D10559F6805C9F4F6E5F7F4F71
:101650006830710509F0BECFDF91CF911F910F91D6
:10166000FF90EF9008956091E50382E090E00E9482
:10167000C90A6091E40383E090E00E94C90A609186
:10168000E30384E090E00E94C90A6091EB0385E0E7
:1016900090E00E94C90A60910A0186E090E00E94F1
:1016A000C90A6091E20387E090E00E94C90A609154
:1016B000E10388E090E00E94C90A6091E00389E0BC
:1016C00090E00C94C90A1092E50381E08093EB034B
:1016D0008093E4038093E30380930A018093E00303
:1016E0008093E1038093E2030C94330BE82FF0E046
:1016F000EE0FFF1FE456FD4F6591749186E892E06E
:101700000E94D11F0E94B0096093DB037093DC0339
:101710008093DD039093DE0381E08093DA030895E4
:10172000CF92DF92EF92FF920F931F93CF93C62F2A
:10173000682F70E080E090E00E94A1210EEE13E09F
:10174000F80120813181428153810E9451200E9401
:1017500069216B017C016C2F70E080E090E00E94B9
:10176000A121F80124813581468157810E945120B1
:101770000E946921CC9C9001CD9C300D300D11242C
:10178000669FA001679F500D500D1124B901640F91
:10179000751F072E000C880B990B0E94A1210E9437
:1017A0003F230E947021862FCF911F910F91FF90B0
:1017B000EF90DF90CF9008950F931F93CF93DF9317
:1017C000C1E0D0E0481728F1962F082F10E0291724
:1017D000F0F08034D0F49032C0F4392F369536953D
:1017E0003695F80150E4359FE00DF11D1124EC5DB4
:1017F000FB4F392F3770DE0101C0AA0F3A95EAF787
:101800003A2F30955081352330839F5FE0CF8F5F33
:10181000D9CFDF91CF911F910F9108958034C8F4F3
:101820006032B8F4962F969596959695E82FF0E04D
:1018300080E4989FE00DF11D1124EC5DFB4F677073
:1018400081E090E001C0880F6A95EAF79081892BCA
:10185000808308958034D0F46032C0F4E62FE6959A
:10186000E695E69590E4E99FF0011124E55FFE4FCF
:10187000E80FF11D808190E0677002C09595879513
:101880006A95E2F780FD04C080E0089581E0089544
:1018900082E008950F931F93CF93DF93C82FD62F25
:1018A0006091EE037091EF038091F0039091F1034A
:1018B0000E947021162F6091F2037091F3038091C2
:1018C000F4039091F5030E947021062FC11302C00A
:1018D000D017A1F00D1708F4D150D01708F4DF5F2E
:1018E0001C1708F4C150C11708F4CF5F6D2F8C2F5F
:1018F0000E942A0C882351F380E001C081E0DF912F
:10190000CF911F910F9108958F929F92AF92BF92A6
:10191000CF92DF92EF92FF926B017C0149015A0155
:1019200020E030E0A9010E94ED2087FD55C020E0B5
:1019300030E04CE752E4C701B6010E94B722181606
:101940000CF44AC020E030E0A901C501B4010E94B6
:10195000ED2087FD41C020E030E048EF51E4C501B3
:10196000B4010E94B7221816BCF120E030E0A901B2
:10197000C501B4010E94B72220E030E040E05FE3FF
:1019800087FD05C0C501B4010E94522004C0C501F5
:10199000B4010E9451200E946921B62E20E030E05F
:1019A000A901C701B6010E94B72220E030E040E063
:1019B0005FE387FD05C0C701B6010E94522004C045
:1019C000C701B6010E9451200E946921862F6B2D0C
:1019D0000E942A0C91E0811190E0892FFF90EF90F6
:1019E000DF90CF90BF90AF909F908F9008954F92CF
:1019F0005F926F927F928F929F92AF92BF92CF929F
:101A0000DF92EF92FF920F931F93CF93DF9300D05B
:101A100000D0CDB7DEB78CE0E4E3F2E0AEEEB3E0A9
:101A200001900D928A95E1F7F12C81E1E82E90E288
:101A3000892E912CA12CB12CCF2CD12C2091E303F9
:101A40003091E403822F90E0830F911D3091EB03DE
:101A5000AC01430F511DC416D5060CF0C1C0F216DF
:101A600068F0C816D90664F00E947A1F25E030E0BD
:101A700040E050E00E94EE1F6E5F03C060E001C0D6
:101A800061E0862F90E09A838983EC9C8001ED9C35
:101A9000100D11240A561D4FFC01E158FD4F8081A5
:101AA000D8018C93E981FA81E858FD4F8081119625
:101AB0008C931197E981FA81EF58FD4F808112963E
:101AC0008C931297E981FA81E858FD4F7080139644
:101AD0007C92E981FA81E659FD4F608170E080E0F7
:101AE00090E00E949F21F801648375838683978329
:101AF000E981FA81ED59FD4F608170E080E090E06E
:101B00000E949F21D80118966D937D938D939C938D
:101B10001B97E981FA81E45AFD4F80811C968C93D2
:101B20001C97E981FA81EB5AFD4F80811D968C93B9
:101B30001D97E981FA81E25BFD4F80811E968C93AF
:101B40001E97E981FA81E95BFD4F80811F968C9396
:101B50001F97E981FA81E05CFD4F808150968C935C
:101B60007720E1F10E947A1F20E430E040E050E06D
:101B70000E94EE1F615069830E947A1FA5019401A3
:101B80000E94EE1F615070E080E090E00E949F2173
:101B90002B013C01F9816F2F70E080E090E00E9402
:101BA0009F2169837A838B839C83A30192010E9486
:101BB000840C8823B9F2EC9CF001ED9CF00D11240B
:101BC000EA56FD4F89819A81AB81BC8184839583DC
:101BD000A683B7834086518662867386F3942CCFA2
:101BE0000F900F900F900F90DF91CF911F910F9159
:101BF000FF90EF90DF90CF90BF90AF909F908F902D
:101C00007F906F905F904F9008950E94B00960930D
:101C1000DB037093DC038093DD039093DE0360931A
:101C20000004709301048093020490930304609372
:101C3000FC037093FD038093FE039093FF0381E008
:101C40008093E9038093E00380930404109295024B
:101C5000109293021092EA031092DA031092FA03A0
:101C60001092FB039FE09093D9031092E6038093B8
:101C7000DF0380939402809392021092E803109203
:101C8000E7031092EC0383E68093ED030C94F70CCA
:101C900061E08AE00E94470961E08BE00E94470909
:101CA00061E089E00E9447095D98289808950F93A4
:101CB0001F93CF9388E00E941E09892BD9F087E0FB
:101CC0000E941E09892BC1F083E10E941E09892B05
:101CD000A9F085E10E941E09892B91F084E10E9400
:101CE0001E09892B79F082E10E941E09892B61F07F
:101CF000C0E00BC0C2E409C0C1E407C0C2E505C032
:101D0000C4E403C0CCE401C0C5E5809186058C1312
:101D100017C00E94B009009182051091830520919F
:101D2000840530918505DC01CB01801B910BA20B52
:101D3000B30B8B3F9105A105B10510F4C0E00CC0B9
:101D4000C09386050E94B009609382057093830555
:101D500080938405909385058C2FCF911F910F91CF
:101D60000895682F70E080E090E00C947609CF939E
:101D70009C0180910A018823B9F0C62F80E48093EA
:101D80009000032E000C440B550B60E472E48FE0CE
:101D900090E00E94EE1F30939900209398008C2FC2
:101DA0000E94B10E10929000CF910895CF93DF93CF
:101DB00020EE240F2F3560F550E04052510925E008
:101DC000249FE001259FD00D11249B0164307105F3
:101DD00014F023E030E0D90126E0AA0FBB1F2A95BA
:101DE000E1F79C01CC9714F02BE330E02A0F3B1F66
:101DF000D901AC5DBB4F80E090E0FE01E80FF91F18
:101E0000E75DFC4FE491ED93019685309105A9F7CC
:101E1000DF91CF9108951F93CF93DF93962F21E108
:101E2000829FF0011124EA56FD4F60816F594530C1
:101E300050F49B3050F040E086EF890FDF91CF9156
:101E40001F910C94CD0A493068F4963068F0892FC0
:101E500090E0462F62E070E00597DF91CF911F91EF
:101E60000C94E2044D3068F4943058F0892F90E0DF
:101E7000462F62E070E00397DF91CF911F910C94A1
:101E8000D60EC92F1EEF190F62E1812F0E940E0C92
:101E9000DFEFDC0F62E18D2F0E940E0C62E18C2FD0
:101EA0000E940E0C63E1812F0E940E0C63E18D2FC6
:101EB0000E940E0C63E18C2FDF91CF911F910C9447
:101EC0000E0CCF92DF92EF92FF920F931F93CF935E
:101ED000DF93FA0101900020E9F731979F01241B5D
:101EE000350B122FA82F8C3308F0ABE3762F64301C
:101EF00008F073E0922F990F290F220F2C3308F06E
:101F00002BE3972F30E02A0F311DE0E49E9FE00184
:101F10001124BA2FEB2FF0E0E217F3073CF4EC5D4D
:101F2000FB4FEC0FFD1F1082BF5FF4CF9F5F79174F
:101F300060F76A01C82FD0E000E0E62EF12C01170F
:101F400060F40A3051F0F60141916F01B701CE0102
:101F50000E94D60E0F5F2696F2CFDF91CF911F9190
:101F60000F91FF90EF90DF90CF90089580E091E087
:101F7000E4E2F4E0DF019C011D9221503040E1F7E2
:101F800008958EBD00000DB407FEFDCF0895AF92F9
:101F9000BF92CF92DF92EF92FF920F931F93CF9356
:101FA000DF9384E2E82E84E0F82ED4E000E010E035
:101FB000A02E6701B12CF60181916F0190E00A2CEF
:101FC00002C0959587950A94E2F7C82FCF70F4E088
:101FD000CF9FC00111248C2B8373C82FCC0F8C2B67
:101FE0008575C82FCC0FC82B8C2F0E94C10F8C2F4A
:101FF0000E94C10FB39420E4B212DDCF0C5F1F4FDB
:1020000008301105A9F6D15080E4E80EF11CD11179
:10201000CDCFDF91CF911F910F91FF90EF90DF9087
:10202000CF90BF90AF900895CF93C82F5C9881E870
:102030000E94C10F8C2F0E94C10F5C9A6C2F80E010
:1020400090E0CF910C94C90ACF93DF9385E00E9472
:10205000B10E5F9A85E00E94B10E5E985C98C4E074
:10206000D5E0FE0184910E94C10F2196F5E0C131B7
:10207000DF07B9F75C9ADF91CF9108954091120480
:10208000509113042091100430911104421753070A
:10209000B4F49091E8009570E1F39091E80092FD1E
:1020A00019C08093F100809112049091130401965D
:1020B0008F739927892B19F48EEF8093E800809114
:1020C00012049091130401969093130480931204C8
:1020D00081E0089580E00895615030F02091F10092
:1020E000FC0120830196F8CF289884E6809316049B
:1020F0000895CF93DF93CDB7DEB72F970FB6F8943F
:10210000DEBF0FBECDBF789484B5826084BD84B538
:10211000816084BD85B5826085BD85B5816085BDE2
:1021200080916E00816080936E001092810080919A
:102130008100826080938100809181008160809322
:102140008100809180008160809380008091910067
:1021500082608093910080919100816080939100D2
:10216000809190008160809390008091C100846094
:102170008093C1008091C10082608093C1008091F2
:10218000C10081608093C1008091C3008160809311
:10219000C3008091C00082608093C0008091C20023
:1021A00081608093C20080917A00846080937A007D
:1021B00080917A00826080937A0080917A008160B9
:1021C00080937A0080917A00806880937A001092E0
:1021D000170410921404109215048091D7008160A6
:1021E0008093D70080EA8093D80089B5806189BD4B
:1021F00089B5826089BD09B400FEFDCF61E070E061
:1022000080E090E00E9476098091D8008F7C806108
:102210008093D8008091E000807F8093E0008091DF
:10222000E1008E7E8093E1008DE08093E200559A7C
:10223000209A85B1806F85B984B1877E84B984B1D5
:10224000876E84B95E9A5F988AB1806D8AB9769AF2
:102250006E9881B3806F81BB899880B38D7080BB8D
:1022600080E58CBD81E08DBD0E94241081E88093C3
:1022700064008091650081608093650080916400B6
:102280008260809364008091640080688093640021
:102290008091640088608093640080916400806411
:1022A000809364008091650081608093650084E67E
:1022B0008093050482E10E941E09892B49F40E9443
:1022C000B60F0E94C70F60E089E00E944709FFCF68
:1022D000109290008AE0809391003E9A3F9A0E946B
:1022E000050E0E94630B82E090E00E94CB0A91E011
:1022F000811101C090E09093E50383E090E00E949B
:10230000CB0A8093E40384E090E00E94CB0A8093A0
:10231000E30385E090E00E94CB0A8093EB0386E024
:1023200090E00E94CB0A91E0811101C090E090936F
:102330000A0187E090E00E94CB0A91E0811101C080
:1023400090E09093E20388E090E00E94CB0A91E055
:10235000811101C090E09093E10389E090E00E9438
:10236000CB0A91E0811101C090E09093E0030E94BC
:10237000F70C60E08BE00E9447094FE661E070E0F7
:1023800080E090E00E94E20441E060E78BE00E9480
:10239000CD0A40E061E786E10E94CD0A41E062E7B4
:1023A0008BE20E94CD0A4FE661E070E086E390E0A8
:1023B0000E94E2040E94C70F6CED75E080E090E09F
:1023C0000E9476090E94B60F80E090E00E94CB0A3E
:1023D0000E9414100E94480EF1E13F2E0E94B009A5
:1023E00080910604882321F0109206040C946A1C44
:1023F00080910704262F281B822F9091050429170E
:1024000058F48F5F891710F00C946A1C81E083BF29
:10241000889513BE0C946A1C81E080930604609337
:10242000070488E00E941E09892B39F487E00E9486
:102430001E09892B11F40C94741C87E00E941E095C
:10244000892BD9F480910404811117C00E94B0092E
:1024500000910004109101042091020430910304C2
:10246000DC01CB01801B910BA20BB30B8B3F9105C1
:10247000A105B10510F00C94781C1091FB0311110B
:1024800005C08091FA03882309F4B9C00E94B60FF1
:1024900045E560E070E082E090E00E94E2041123F4
:1024A000D9F044E460E070E083E190E00E94E2044F
:1024B00049E460E070E08DE190E00E94E20445E4D0
:1024C00060E070E087E290E00E94E20444E460E0B3
:1024D00070E084E390E013C047E560E070E086E1DF
:1024E00090E00E94E2044FE460E070E083E290E05C
:1024F0000E94E2044EE460E070E080E390E00E941D
:10250000E20442E662E070E083E090E00E94D60ED2
:102510006091F80370E080E090E00E94A1212AE041
:1025200037ED43E250E40E94F7200E9469210AE05F
:1025300010E0CB01B8010E94DD23CB01B8010E945D
:10254000DD2340E3480F63E070E083E090E00E9409
:10255000D60E41E662E070E085E190E00E94D60E82
:102560006091F90370E080E090E00E94A1212AE0F0
:1025700037ED43E250E40E94F7200E946921CB012D
:10258000B8010E94DD23CB01B8010E94DD2340E3A6
:10259000480F63E070E085E190E00E94D60E409124
:1025A000ED0362E070E080E390E00E94D60E1092AE
:1025B0001B048091EC032AE0622F0E94D123905DDE
:1025C000909318048FE2809319048091EB030E948A
:1025D000D123905D90931A0448E154E063E08AE2CD
:1025E0000E94610F0E94C70F87E00E941E09892B7D
:1025F00011F00C94681C0E94050E0C94681C8091CC
:10260000EA03882309F440C10E94B60FEBE0F1E031
:10261000A4E2B4E08BE092E021912D938E179F0706
:10262000D9F788E00E941E09892B09F04CC08091DF
:10263000E9030091E703882309F11091E803612F72
:10264000802F0E940E0C0034F0F51032E0F5812F3F
:10265000869586958695E02FF0E030E4839FE00D27
:10266000F11D1124E55FFE4F177081E090E001C07D
:10267000880F1A95EAF79081892B24C0003418F549
:102680008091E8038032F8F4982F96959695969568
:10269000E02FF0E040E4949FE00DF11D1124282F7D
:1026A000277081E090E001C0880F2A95EAF78095B5
:1026B000DF01AC5DBB4F9C9198239C93E55FFE4F7F
:1026C00090818923808387E00E941E09892B11F461
:1026D0001092EA0383E10E941E09892B51F4809134
:1026E000E7038F3320F48F5F8093E70302C01092DB
:1026F000E70385E10E941E09892B51F48091E803CC
:102700008F3120F48F5F8093E80302C01092E803BA
:1027100084E10E941E09892B49F48091E7038230ED
:1027200010F0815001C08FE38093E70382E10E94A3
:102730001E09892B49F48091E803823010F0815002
:1027400001C08FE18093E8031091E70327E01A327C
:10275000C8F44FE360E083E30E94DC0B812F6AE062
:102760000E94D123192F40E3480F60E070E084E31A
:1027700090E00E94D60E40E3410F60E070E08AE3F3
:1027800090E01BC04FE160E083E10E94DC0B2AE097
:10279000812F622F0E94D123192F0E94D12340E361
:1027A000490F60E070E084E190E00E94D60E40E3C3
:1027B000410F60E070E08AE190E00E94D60E109137
:1027C000E803133100F52FE14BE067E180E00E9460
:1027D000DC0B812F6AE00E94D123192F40E3480FC0
:1027E00063E070E080E090E00E94D60E40E3410F8D
:1027F00063E070E086E090E00E94D60E0FE110E00A
:10280000BB24B3941BC020E14BE067E080E00E9452
:10281000DC0B2AE0812F622F0E94D123192F0E9406
:10282000D12340E3490F61E070E080E090E00E9436
:10283000D60E40E3410F61E070E0DCCF9090E703FB
:10284000B91448F46091E803B61628F46B19892D81
:102850008B190E940E0CE92CF12C680150E2C50E78
:10286000D11CEC14FD0414F00C94B31EA090E803EA
:10287000BA1410F00C948B1E6A2D6B19892D8B0DD8
:102880000E940E0C0C948B1E80910404882309F482
:1028900085C20E94570E8823A1F0823409F026C217
:1028A0008091E603811111C00E94B0096115710584
:1028B0008105910511F00E94C81F0E94050E10921B
:1028C000040424E234E080E037C2823049F490917D
:1028D000E50381E089278093E5031092040452C048
:1028E000833069F44091E40350E021E065E070E05A
:1028F00081E090E00E9440058093E40343C084306F
:1029000069F44091E30350E021E065E070E081E08C
:1029100090E00E9440058093E30334C0853069F461
:102920004091EB0350E021E069E070E081E090E04D
:102930000E9440058093EB0325C0863089F44091C6
:102940000A0150E022E061E070E080E090E00E9447
:10295000400591E0811101C090E090930A0112C0FE
:10296000883099F44091E20350E022E061E070E0A9
:1029700080E090E00E94400591E0811101C090E06C
:102980009093E2030E94330B9CCF893089F44091ED
:10299000E10350E022E061E070E080E090E00E941E
:1029A000400591E0811101C090E09093E103EACFEE
:1029B0008A3089F44091E00350E022E061E070E069
:1029C00080E090E00E94400591E0811101C090E01C
:1029D0009093E003D7CF8B3019F40E94630B71CF33
:1029E0008D3021F481E08093E90305C08E3031F40D
:1029F0001092E90381E08093EA0363CF8F3049F4BA
:102A0000EBE0F1E08BE092E011928E179F07E1F787
:102A100058CF90EF980F9230B0F54091DF0350E01F
:102A200021E063E070E081E090E00E944005809347
:102A3000DF030BE011E0E12CF12C9091E603809193
:102A4000DF03903161F490E0982F8827865F910929
:102A50008E0D9F1D0E94CB0AD8018C930AC0F801ED
:102A600060816E0D90E0982F8827865F91090E9403
:102A7000C90AFFEFEF1AFF0A0F5F1F4FE11421E0B1
:102A8000F206D9F61ECF8730B1F480E090E00E94C4
:102A9000CB0A482F50E021E06FEF70E080E090E03B
:102AA0000E944005182F0E941410612F80E090E0D2
:102AB0000E94C90A06CF8231D9F5809164008E7FC9
:102AC000809364008EE580937C0082E00E94B10ECA
:102AD00080917A00806480937A0080917A0086FDEC
:102AE000FCCF809164008160809364002091780025
:102AF00030917900032E000C440B550B60E070E31D
:102B000081E190E00E94EE1FCA01B9010E94A1215B
:102B100020E030E040E251E40E94F7200E94692169
:102B2000DC01CB0121E0AC01BC010E944005C9CE13
:102B3000833109F06BC0EEEAF2E06591749188E1AF
:102B400094E00E94D11FE8E1F4E001900020E9F751
:102B50003197E851F440DE2E8CE08E9FE02D112459
:102B6000EC3308F0EBE320E0F0E0822F90E08E17EA
:102B70009F0714F020E00BC0DC01AC5DBB4F1C9242
:102B80002F5FF3CFDC01AC59BB4F1C922F5F822F1C
:102B900090E08E179F07B4F308E114E0E12CF12CCC
:102BA000C12C0FC035E0C31671F0D8014D918D01D5
:102BB00060E070E0C7010E94E204C394BCE0EB0E49
:102BC000F11CCD1478F3E0EBF2E06591749188E1AB
:102BD00094E00E94D11F48E154E062E080E00E944E
:102BE000610FE2EBF2E06591749188E194E00E945C
:102BF000D11F48E154E063E080E00E94610F0E9431
:102C0000C70F0E94570E8823E1F35BCE843109F091
:102C100058CE0E94480E5C988EEA0E94C10F8DE843
:102C20000E94C10F80E10E94C10F84E60E94B10E94
:102C30005F98E5E8F2E02491E6E6F2E084918823EB
:102C4000C9F090E0880F991FFC01E05BFD4FA59152
:102C5000B491FC01EE5BFD4F859194914FB7F894D0
:102C60003C91522F509535233C93DC01EC912E2B57
:102C70002C934FBF2DE139E03093090120930801D7
:102C800080916A008F7C80936A00EE9A83B7817F7F
:102C9000846083BF83B7816083BF30930901209331
:102CA000080180916A008F7C80936A00EE9A83B756
:102CB000816083BF889583B78E7F83BF83B78E7F04
:102CC00083BFEE988CE199E090930901809308010D
:102CD0000E94241080E090E00E94CB0A0E94141011
:102CE00088EC0E94B10E0E94480EEBCD813409F0B1
:102CF0000EC60E94B0090091FC031091FD032091C3
:102D0000FE033091FF03DC01CB01801B910BA20B72
:102D1000B30B8B3F9105A105B10508F4D2CD1092FC
:102D200004040E94B009609300047093010480932E
:102D3000020490930304C5CDF90190E011929F5FC6
:102D40009034E1F78F5F205C3F4F8430A9F700E0BB
:102D500010E08091E603F801E80FF11DE531F1057F
:102D600084F4EE0FFF1FE85EFD4F6591749188E1DA
:102D700094E00E94D11F48E154E0602F86E00E9459
:102D8000610F0F5F1F4F0430110519F74DE760E029
:102D900070E080E090E00E94D60E9AC50E94B009D3
:102DA0000091DB031091DC032091DD033091DE0301
:102DB000DC01CB01801B910BA20BB30B893E93402E
:102DC000A105B10510F01092DA0382E10E941E09FC
:102DD000892B31F085E10E941E09892B09F06CC016
:102DE00085E10E941E09892B09F0BCC56FEF7FEFBA
:102DF000072E000C880B990B0E94A1214B015C014E
:102E00006091F6037091F703072E000C880B990B65
:102E10000E94A1212BED3FE049E450E40E94C4222E
:102E200020E030E044E353E40E94F7202B013C0112
:102E30000E94F2209B01AC01C501B4010E94C42292
:102E40002091EE033091EF034091F0035091F10394
:102E50000E9452206B017C01C301B2010E94312308
:102E60009B01AC01C501B4010E94C4229B01AC01CD
:102E70006091F2037091F3038091F4039091F50354
:102E80000E9451204B015C019B01AC01C701B601BE
:102E90000E94840C882381F0C092EE03D092EF034D
:102EA000E092F003F092F1038092F2039092F30328
:102EB000A092F403B092F50384E10E941E09892BCD
:102EC000A9F42091D9038091F6039091F703820F22
:102ED000911D8836F1E09F072CF49093F7038093BF
:102EE000F60304C01092F7031092F60383E10E94E8
:102EF0001E09892B81F42091D9038091F6039091CA
:102F0000F703821B910997FF02C088599E4F909347
:102F1000F7038093F60388E00E941E09892BE9F5E8
:102F20008091F9038823C9F162E088E893E10E9467
:102F3000B70E8091E503811114C090910305809133
:102F400004058F7B209102052F7B206A20930205C8
:102F50009F75906490930305806A809304050E9496
:102F6000C70FF12CCF2CD12C2091E3038091E403E7
:102F700090E0820F911D2091EB03820F911DC816E6
:102F8000D9060CF4F2C48091F90381508093F903BF
:102F9000811103C087E00E94760B0E94B009009166
:102FA0000C0410910D0420910E0430910F04DC01EB
:102FB000CB01801B910BA20BB30B893E9340A10563
:102FC000B10508F475C0A12C99249394CC24CA941B
:102FD000D12CEA2CF12C2091E3038091E40390E0C2
:102FE000820F911D2091EB03820F911DE816F906C7
:102FF0000CF04BC03E9C80013F9C100D11240A56E2
:103000001D4FD801BC90B1101EC011968C91119724
:10301000882309F4ABC618966D917D918D919C9192
:103020001B970E947021862EF8016481758186812C
:1030300097810E947021862F682D0E94900B853009
:1030400008F4F2C593C6F1E0BF1290C6D8011196FC
:103050008C911197882309F489C618966D917D91FA
:103060008D919C911B970E947021862EF80164819E
:103070007581868197810E947021862F682D0E941C
:10308000900B853008F4F0C571C60E94B0096093BA
:103090000C0470930D0480930E0490930F048091A0
:1030A00094028C3010F48F5F01C081E08093940211
:1030B0000E94B009009108041091090420910A04AB
:1030C00030910B04DC01CB01801B910BA20BB30BE5
:1030D000893E9340A105B10508F4FCC02091E303AB
:1030E0008091E40390E0820F911D2091EB03AC01ED
:1030F000420F511D5E834D83C09092028091EE037A
:103100009091EF03A091F003B091F10389839A832A
:10311000AB83BC838090F2039090F303A090F40300
:10312000B090F503D12CED2CF12CAD81BE81EA16C7
:10313000FB060CF0BCC03E9C80013F9C100D11248E
:103140000A561D4FF8018181882309F4AEC082819F
:10315000882309F4AAC065858C2D0E94D123911182
:10316000A4C0448055806680778029813A814B8154
:103170005C81C301B2010E94B7221816ACF420E0B2
:1031800030E040E85FE3C301B2010E9451202B010F
:103190003C01D80118962D913D914D915C911B9762
:1031A0000E94840C81119BC53E9C80013F9C100DA8
:1031B00011240A561D4FF80144805580668077809F
:1031C000A301920169817A818B819C810E94B7223F
:1031D0001816ACF420E030E040E85FE3C301B20130
:1031E0000E9452202B013C01D80118962D913D914F
:1031F0004D915C911B970E94840C811176C53E9C79
:1032000080013F9C100D11240A561D4FF801408487
:10321000518462847384A5019401C301B2010E94A8
:10322000B7221816BCF420E030E040E85FE3C301A9
:10323000B2010E9451202B013C01D80114966D91DE
:103240007D918D919C911797A30192010E94840C0E
:10325000811153C53E9C80013F9C100D11240A56DC
:103260001D4FF8014084518462847384A30192014C
:10327000C501B4010E94B7221816BCF420E030E06A
:1032800040E85FE3C301B2010E9452202B013C01E0
:10329000D80114966D917D918D919C911797A30102
:1032A00092010E94840C81112EC5D3943CCF0E94C0
:1032B000B009609308047093090480930A04909302
:1032C0000B04809192028C3010F48F5F01C081E07A
:1032D000809392020E94B60F8091E503882309F43F
:1032E00058C0EBE0F1E0A4E2B4E081918D9322E0DC
:1032F000EB30F207D1F76091F2037091F303809104
:10330000F4039091F5030E947021162F6091EE0353
:103310007091EF038091F0039091F1030E9470216E
:10332000862F612F0E940E0CF12C2F2D30E0409142
:10333000E3038091E40390E0840F911D4091EB033F
:10334000840F911D281739070CF0C2C2329E8001EC
:10335000339E100D11240A561D4FD80111968C91E1
:1033600011978823A1F018966D917D918D919C9174
:103370001B970E947021E62EF80164817581868179
:1033800097810E947021862F6E2D0E940E0CF3945F
:10339000CCCF2DB73EB73A8729872091E3038091A0
:1033A000E40390E0820F911D2091EB03820F911DA9
:1033B0004DB75EB7481B590B0FB6F8945EBF0FBEF2
:1033C0004DBFADB7BEB71196B887AF8340E0242F8D
:1033D00030E0281739071CF000E010E0B7C0EF819B
:1033E000F885E20FF31F10824F5FF1CF29812D8303
:1033F00049815A81BA01550F880B990B0E94A1216E
:103400006B017C018091F6039091F703800F911F6F
:1034100088599E4F68E671E00E94DD23BC01990F38
:10342000880B990B0E94A1212BED3FE049E450E469
:103430000E94C42220E030E044E353E40E94F720DD
:103440002B013C010E94F2209B01AC01C701B60197
:103450000E94C4222091EE033091EF034091F003CB
:103460005091F1030E9452204B015C0120E030E0BA
:10347000A9010E94B72220E030E040E05FE387FD31
:103480008BC0C501B4010E9452200E946921B62E52
:10349000C301B2010E9431239B01AC01C701B601F7
:1034A0000E94C4229B01AC016091F2037091F3036E
:1034B0008091F4039091F5030E9451202B013C016F
:1034C00020E030E0A9010E94B72220E030E040E097
:1034D0005FE387FD66C0C301B2010E9452200E94D3
:1034E0006921A62E8B2D0E942A0C982E81115EC078
:1034F000912C8B2D90E0A0E0B0E08B879C87AD876E
:10350000BE874A2C512C612C712CC92CD12C2091B6
:10351000E3038091E40390E0820F911D2091EB037F
:10352000820F911DC816D9060CF460C029813A811A
:10353000215031093A832983232B09F057CF1016E4
:1035400011060CF0B0C0119501951109C8018896BB
:103550008135910508F0ADC0B801012E000C880B33
:10356000990B0E94A1212DEC3CEC4CE45FE30E94FE
:10357000C4229B01AC0160E070E080E092E40E9414
:1035800051200E947021262EEFE0F0E0FA83E983BB
:10359000FEEFF60FFF872ACFC501B4010E9451202C
:1035A00074CFC301B2010E94512099CF8D808A94BB
:1035B000A701960160E070E084E092E40E9451204F
:1035C0000E9470216F5F861608F092CFFF24FA9454
:1035D000F60E91E0991518F4862F817001C080E0F5
:1035E0006F2D820D0E940E0C6F2DEDCF6B857C85AB
:1035F0008D859E850E94A1213C9C90013D9C300DB3
:103600001124D901AA56BD4F7D0114962D913D91EB
:103610004D915C9117970E94ED20811142C0C3012A
:10362000B2010E94A121F701208531854285538591
:103630000E94ED20811135C02F813885C20ED31E26
:10364000D6018C9181112DC0F7018181882349F128
:103650006A2D8B2D0E944A0C882319F1FD81FC30C4
:1036600068F4D70112968C911297811107C0E1E09E
:103670001296EC9312978C910E94760B8091950292
:103680004D81882339F06F85892D0E940B0F109290
:10369000950204C0622D892D0E940B0FE1E0D60136
:1036A000EC93939432CF45E050E0401B510B8A01DC
:1036B0004DCF89859A850FB6F8949EBF0FBE8DBFFA
:1036C0008091E103811181C08091E203882309F494
:1036D000C5C06091F80370E080E090E00E94A121F5
:1036E0002AE037ED43E250E40E94F7200E9469216E
:1036F0000AE010E0CB01B8010E94DD23CB01B80144
:103700000E94DD2340E3480F60E070E080E090E03D
:103710000E94D60E42E661E070E080E090E00E94F8
:10372000D60E6091F90370E080E090E00E94A12144
:103730002AE037ED43E250E40E94F7200E9469211D
:10374000CB01B8010E94DD23CB01B8010E94DD232B
:1037500040E3480F60E070E08BE390E00E94D60EFB
:1037600041E661E070E08BE390E00E94D60E27E135
:1037700045E067E180E00E94DC0B4091EB03405D97
:103780008091EC03481B63E070E080E090E00E94D1
:10379000D60E8091F6039091F70389589E4F68E604
:1037A00071E00E94DD236DE270E00E94DD2343E7BB
:1037B000460F63E070E08BE390E00E94D60E8091AC
:1037C0000305806C8093030549C010E095E0A92EA5
:1037D0002FE1B22E0A2D011B019F002D11246091B3
:1037E000F6037091F703072E000C880B990B0E94CB
:1037F000A1212BED3FE049E450E40E94C42220E0E7
:1038000030E044E353E40E94F7200E9483236B01DD
:103810007C01602F70E0660F771F072E000C880B6D
:10382000990B0E94A121A70196010E94C42220E0C9
:1038300030E048EF51E40E9452200E947021F62EA1
:10384000602F8F2D0E940E0C6B2D601B8F2D0E9400
:103850000E0C1F5F133009F0BDCF36CF8091DA0315
:10386000882341F18091E003882321F120E036E0B4
:10387000E6E8F2E001900020E9F73197CF018658A1
:103880009240E22FF0E0389FA001399F500D1124A3
:10389000E417F50748F4203428F4EC55FB4F8081F9
:1038A0008F7780832F5FE4CF46E852E063E080E0CB
:1038B0000E94610F80919302882351F040E051E013
:1038C0006FEF70E084E294E00E9410241092930263
:1038D0000E94C70F80E090E0892B11F40C94EE1148
:1038E0000E9400000C94EE110E94050E0C941D1213
:1038F00081E0809304040E94B0096093FC037093FC
:10390000FD038093FE039093FF030C943D128235D8
:1039100041F48091E603813110F48C5F1FC084E193
:103920001DC0843451F48091E603843110F48F5F1C
:1039300015C01092E6030C9461148C3431F480911C
:10394000E6038530B0F3845009C0853511F00C943E
:1039500061148091E603882311F381508093E6037C
:103960000C94611461E070E043CA3C9C80013D9C72
:10397000100D11240A561D4FD8018C91823070F120
:1039800011968C911197882349F118964D905D906E
:103990006D907C901B97C301B2010E947021262E6E
:1039A000F80184809580A680B780C501B4010E948B
:1039B0007021E62E622D8E2D0E94900B082F10E0B4
:1039C0000F3011055CF4622D8E2D0E944A0C81117E
:1039D00007C004C0883291050CF48FC0F394C2CAAA
:1039E0002091EE033091EF034091F0035091F103E9
:1039F00029833A834B835C83C301B2010E9469210E
:103A0000072E000C880B990B0E94A1212091F20334
:103A10003091F3034091F4035091F5030E9451203B
:103A20002B013C01C501B4010E946921072E000C45
:103A3000880B990B0E94A12129813A814B815C81DD
:103A40000E9451209B01AC01C301B2010E94F720EA
:103A50000E94BE2020E030E044E353E40E94C422F0
:103A60002BED3FE049E450E40E94F7200E946921D9
:103A70002B013C0129813A814B815C81C501B40154
:103A80000E94B7222091F6033091F70387FD1DC0F5
:103A900088E691E08419950968E671E00E94DD23CB
:103AA000A901481B590BCA0180539D4F68E671E07C
:103AB0000E94DD23813451E095070CF48BCFA8E6FA
:103AC000B1E0A81BB90BCD0118C084EB90E08419BC
:103AD0009509F901E81BF90BCF0180539D4F68E66A
:103AE00071E00E94DD238134F1E09F070CF472CF76
:103AF00028E631E0281B390BC901BC01990F880B5E
:103B0000990B0E94A12120E030E040E252E40E94A3
:103B1000F7209B01AC0160E070E080E89FE30E9429
:103B200051204B015C016FE070E0601B710B072EB0
:103B3000000C880B990B0E94A1219B01AC01C501CF
:103B4000B4010E94C4220E9469213C9CF0013D9C6A
:103B5000F00D1124EA56FD4F4485242F30E0621702
:103B60007307FCF4842F861B848765E088EE93E05E
:103B70000E94B70E31E03093950260E08BE00E9426
:103B8000470981E00E94B10E61E08AE00E94470986
:103B900061E08BE00E94470961E089E00E944709EB
:103BA0001DCF1486118288E00E94760B8091EC0371
:103BB0008F5F8093EC033091E3038091E403232F24
:103BC000280F90E0830F911D3091EB03830F911D1F
:103BD00030E0422F50E04817590764F4349EF0015A
:103BE000359EF00D1124EA56FD4F4181411131E01F
:103BF0002F5FEFCF3111F2CE41E04093FA0368EC32
:103C000086E091E00E94B70E68EC8AE491E00E94A1
:103C1000B70E68EC88E891E00E94B70E6FEF8BE07A
:103C200092E00E94B70EDACE9091F903D801509637
:103C30008C91492F50E09601281B310942175307F8
:103C400014F4890F01C08FEF8093F9033E9CF001BB
:103C50003F9CF00D1124EA56FD4F11826CE38BE07E
:103C600092E00E94B70E82C09091F803F80180891B
:103C7000492F50E09601281B31094217530714F4CD
:103C8000890F01C08FEF8093F8033E9CF0013F9CA9
:103C9000F00D1124EA56FD4F11826CE38BE092E0A7
:103CA0001AC01092F80381E68B0D8093ED03909279
:103CB000FB0368EC8BE092E00E94B70E68EC88E8AA
:103CC00091E00E94B70E68EC8AE491E00E94B70E82
:103CD0006FEF86E091E00E94B70EA3947AC9F801D5
:103CE00044825582668277825FCAD80114964D92CB
:103CF0005D926D927C92179782CAF8014086518638
:103D000062867386A7CAD80118964D925D926D920D
:103D10007C921B97CACAB91400F5A090E8038A2DBB
:103D200090E0801791077CF46A2D6B0D892D8B191B
:103D30000E940E0CEC14FD0434F46B2D6A0D892DD9
:103D40008B0D0E940E0CB3940150110983E0B81240
:103D50000C941E140E94C70FBBCD8A2D90E08017D3
:103D600091075CF3F0CFB91470F7D7CF3E9C800178
:103D70003F9C100D11240A561D4FF80181818823A4
:103D800009F4ABCFD80112968C911297882309F4CD
:103D9000A4CF809194021E966C911E970E94D1230D
:103DA00091119BCF18966D917D918D919C911B9750
:103DB0000E947021E62EF8016481758186819781C9
:103DC0000E947021F62E6E2D8F2D0E944A0C8823A2
:103DD00009F483CF6E2D8F2D0E94900BD8011F9672
:103DE0009C91981708F479CF909293028091F803F0
:103DF000D80150969C91891708F453CF891B809362
:103E0000F80364E184E690E00E94B70E60E08AE087
:103E10000E94470981E00E94B10E61E08AE00E94A1
:103E2000470961E08BE00E94470961E089E00E9458
:103E3000470953CFE6E2F5E01382128288EE93E061
:103E4000A0E0B0E084839583A683B78386E292E006
:103E5000918380838FEF9FEF9587848708958F925A
:103E60009F92AF92BF92CF92DF92EF92FF92CF9349
:103E7000DF93EC01688179818A819B8161157105ED
:103E80008105910521F464E279ED8BE597E02DE160
:103E900033EF41E050E00E94EE1F49015A019B01BF
:103EA000AC01A7EAB1E40E940D206B017C01ACEEED
:103EB000B4EFA50194010E941B20DC01CB018C0D05
:103EC0009D1DAE1DBF1DB7FF03C00197A109B048DE
:103ED00088839983AA83BB83BC01CD019F77DF913F
:103EE000CF91FF90EF90DF90CF90BF90AF909F90D9
:103EF0008F9008958F929F92AF92BF92CF92DF9250
:103F0000EF92FF926091170270911802809119024E
:103F100090911A02611571058105910521F464E201
:103F200079ED8BE597E02DE133EF41E050E00E9421
:103F3000EE1F49015A019B01AC01A7EAB1E40E94BE
:103F40000D206B017C01ACEEB4EFA50194010E9441
:103F50001B20DC01CB018C0D9D1DAE1DBF1DB7FFCD
:103F600003C00197A109B0488093170290931802EB
:103F7000A0931902B0931A02BC01CD019F77FF9064
:103F8000EF90DF90CF90BF90AF909F908F9008956B
:103F900060931702709318028093190290931A028B
:103FA0000895FB01DC0105900D920020E1F70895D2
:103FB000F999FECF92BD81BDF89A992780B50895F1
:103FC000262FF999FECF1FBA92BD81BD20BD0FB635
:103FD000F894FA9AF99A0FBE01960895052E97FB68
:103FE0001EF400940E94052057FD07D00E94202057
:103FF00007FC03D04EF40C94052050954095309565
:1040000021953F4F4F4F5F4F089590958095709544
:1040100061957F4F8F4F9F4F08950E944220A59F2B
:10402000900DB49F900DA49F800D911D11240895B3
:10403000B7FF0C940D200E940D20821B930B089556
:10404000A1E21A2EAA1BBB1BFD010DC0AA1FBB1F9C
:10405000EE1FFF1FA217B307E407F50720F0A21B0E
:10406000B30BE40BF50B661F771F881F991F1A947B
:1040700069F760957095809590959B01AC01BD01A5
:10408000CF010895A29FB001B39FC001A39F700DFF
:10409000811D1124911DB29F700D811D1124911D50
:1040A00008955058BB27AA270E9469200C946922C2
:1040B0000E94302238F00E94372220F039F49F3FCE
:1040C00019F426F40C9406220EF4E095E7FB0C9408
:1040D0000022E92F0E948E2258F3BA176207730755
:1040E0008407950720F079F4A6F50C94B0220EF41D
:1040F000E0950B2EBA2FA02D0B01B90190010C01F8
:10410000CA01A0011124FF27591B99F0593F50F40F
:10411000503E68F11A16F040A22F232F342F442767
:10412000585FF3CF469537952795A795F04053955F
:10413000C9F77EF41F16BA0B620B730B840BBAF02F
:104140009150A1F0FF0FBB1F661F771F881FC2F79A
:104150000EC0BA0F621F731F841F48F487957795AE
:104160006795B795F7959E3F08F0B0CF9395880F68
:1041700008F09927EE0F979587950895DF93DD272F
:10418000B92FBF7740E85FE31616170648075B07AD
:1041900018F4D92F0E94BC229F938F937F936F9323
:1041A0000E947F23EAECF0E00E9409220E9469222B
:1041B0002F913F914F915F910E94D722DD2351F0C3
:1041C0009058A2EA2AED3FE049EC5FE3D0785D2702
:1041D0000E946920DF910C9469220E94DC2108F47E
:1041E00081E008950E944022E3950C947A220E9477
:1041F0000B210C9469220E94372258F00E94302231
:1042000040F029F45F3F29F00C94002251110C94E6
:10421000B1220C9406220E948E2268F39923B1F3F6
:10422000552391F3951B550BBB27AA2762177307DC
:10423000840738F09F5F5F4F220F331F441FAA1F70
:10424000A9F335D00E2E3AF0E0E832D0915050402C
:10425000E695001CCAF72BD0FE2F29D0660F771FDA
:10426000881FBB1F261737074807AB07B0E809F0C0
:10427000BB0B802DBF01FF2793585F4F3AF09E3F45
:10428000510578F00C9400220C94B1225F3FE4F3C6
:10429000983ED4F3869577956795B795F7959F5F88
:1042A000C9F7880F911D9695879597F90895E1E0D4
:1042B000660F771F881FBB1F621773078407BA0733
:1042C00020F0621B730B840BBA0BEE1F88F7E0958E
:1042D00008950E9470216894B1110C94B122089540
:1042E0000E94962288F09F5798F0B92F9927B751CE
:1042F000B0F0E1F0660F771F881F991F1AF0BA958A
:10430000C9F714C0B13091F00E94B022B1E0089515
:104310000C94B022672F782F8827B85F39F0B93F07
:10432000CCF3869577956795B395D9F73EF490953C
:104330008095709561957F4F8F4F9F4F0895E894BA
:1043400009C097FB3EF490958095709561957F4FDD
:104350008F4F9F4F9923A9F0F92F96E9BB2793958B
:10436000F695879577956795B795F111F8CFFAF49B
:10437000BB0F11F460FF1BC06F5F7F4F8F4F9F4FCC
:1043800016C0882311F096E911C0772321F09EE82A
:10439000872F762F05C0662371F096E8862F70E090
:1043A00060E02AF09A95660F771F881FDAF7880F6A
:1043B0009695879597F90895990F0008550FAA0BC0
:1043C000E0E8FEEF16161706E807F907C0F0121628
:1043D0001306E407F50798F0621B730B840B950B2B
:1043E00039F40A2661F0232B242B252B21F4089580
:1043F0000A2609F4A140A6958FEF811D811D08951D
:1044000097F99F6780E870E060E008959FEF80EC87
:104410000895DF93CF931F930F93FF92EF92DF9254
:104420007B018C01689406C0DA2EEF010E94D7222E
:10443000FE01E894A5912591359145915591A6F3FA
:10444000EF010E946920FE019701A801DA9469F743
:10445000DF90EF90FF900F911F91CF91DF91089522
:1044600000240A9416161706180609060895002453
:104470000A94121613061406050608950C940622D3
:104480000E949622D8F3E894E0E0BB279F57F0F013
:104490002AED3FE049EC06C0EE0FBB0F661F771F09
:1044A000881F28F0B23A62077307840728F0B25ACF
:1044B000620B730B840BE3959A9572F7803830F496
:1044C0009A95BB0F661F771F881FD2F790480C94F0
:1044D000AA23092E0394000C11F4882352F0BB0F79
:1044E00040F4BF2B11F460FF04C06F5F7F4F8F4F0C
:1044F0009F4F0895EF93E0FF07C0A2EA2AED3FE047
:1045000049EC5FEB0E9469200E9469220F9003949E
:1045100001FC9058E7EFF0E00C94BD2357FD905854
:10452000440F551F59F05F3F71F04795880F97FB77
:10453000991F61F09F3F79F0879508951216130631
:104540001406551FF2CF4695F1DF08C01616170660
:104550001806991FF1CF8695710561050894089595
:10456000E894BB2766277727CB0197F908950E9427
:10457000DC2108F48FEF08959B01AC0160E070E04E
:1045800080E89FE30C94F7200E94D7220C946922C4
:104590000E94302238F00E94372220F0952311F03B
:1045A0000C9400220C94062211240C94B1220E9437
:1045B0008E2270F3959FC1F3950F50E0551F629FB7
:1045C000F001729FBB27F00DB11D639FAA27F00D6C
:1045D000B11DAA1F649F6627B00DA11D661F829F93
:1045E0002227B00DA11D621F739FB00DA11D621F78
:1045F000839FA00D611D221F749F3327A00D611D95
:10460000231F849F600D211D822F762F6A2F112476
:104610009F5750409AF0F1F088234AF0EE0FFF1FA9
:10462000BB1F661F771F881F91505040A9F79E3F00
:10463000510580F00C9400220C94B1225F3FE4F30A
:10464000983ED4F3869577956795B795F795E79556
:104650009F5FC1F7FE2B880F911D9695879597F95F
:1046600008959F930E9440220F9007FCEE5F0C94E8
:104670007A2219F416F40C9406220C94A8230E94B2
:104680009622B8F39923C9F3B6F39F57550B87FFCA
:104690000E94B6230024A0E640EA90018058569577
:1046A000979528F4805C660F771F881F20F02617E7
:1046B0003707480730F4621B730B840B202931291C
:1046C0004A2BA69517940794202531254A2758F799
:1046D000660F771F881F20F026173707480730F42A
:1046E000620B730B840B200D311D411DA09581F7CA
:1046F000B901842F9158880F9695879508959B014D
:10470000AC010C94C422DF93D92F0E944022E6957D
:10471000D7952AED3FE049E45FE3B33A62077307B8
:1047200084079507D7953AF0A2EA49EC90680E9471
:1047300069200E946922E5E1F1E00E94BD23DD0FBE
:1047400013F00E94BC22DD0F0BF49058DF91089506
:104750009F3F31F0915020F4879577956795B795F5
:10476000880F911D9695879597F90895915050401F
:10477000660F771F881FD2F708959F938F937F93BB
:104780006F93FF93EF939B01AC010E94C422EF91C2
:10479000FF910E9409222F913F914F915F910C94BC
:1047A000C422991B79E004C0991F961708F0961B44
:1047B000881F7A95C9F78095089597FB072E16F400
:1047C000009407D077FD09D00E94F72307FC05D09D
:1047D0003EF4909581959F4F0895709561957F4F18
:1047E0000895EE0FFF1F0590F491E02D0994AA1B88
:1047F000BB1B51E107C0AA1FBB1FA617B70710F0CC
:10480000A61BB70B881F991F5A95A9F780959095FD
:10481000BC01CD01089581E090E0F8940C94172438
:10482000DC0101C06D9341505040E0F70895F894C9
:02483000FFCFB8
:104832001C091C091C091C091C09010100000000BB
:104842000000000100000000000000010000000064
:104852000000000100000000000000010000000054
:104862000000000100000000000000010000000044
:104872000000000100000000000000010000000034
:104882000000000100000000000000010000000024
:104892000000000100000000000000010000000014
:1048A2000000000100000000000000010000000004
:1048B20000000001000000000000000100000000F4
:1048C20000000001000000000000000100000000E4
:1048D20000000001000000000000000100000000D4
:1048E20000000001000000000000000100000000C4
:1048F20000000001000000000000000100000000B4
:1049020000000001000000000000000100000000A3
:104912000000000100000000000000010000000093
:104922000000000100000000000000010000000083
:104932000000000100000000000000FFFFFFFF0078
:10494200E10000000000000100000000C1808100C1
:104952000000000000004703CE0368035D03AE03BE
:104962006C038A030000A0400000A04000007F7F8B
:10497200FFFF10102030FFFFFF0A02050A02FFFFAF
:104982000302010104FFFF03010204010000705051
:10499200309050141414141414140C141C242A32BD
:1049A2003A000000000000000101010101010100C4
:0649B200010203040506EA
:00000001FF
