:100000000C94A8020C94BB040C9494040C946D04FE
:100010000C9446040C94D0020C94D0020C941F044F
:100020000C94D0020C94D0020C94060D0C94490E42
:100030000C94D0020C94D0020C94D0020C94D002F8
:100040000C94D0020C94D0020C94D0020C94D002E8
:100050000C94D0020C94D0020C94D0020C94D503D2
:100060000C94D0020C94D0020C94D0020C94D002C8
:100070000C94D0020C94D0020C94D0020C94D002B8
:100080000C94D0020C94D0020C94D0020C94D002A8
:100090000C94D0020C94D0020C94D0020C94D00298
:1000A0000C94D0020C94D0020C94D002EA02ED021F
:1000B000DC02E002E6020E030E030E03F102F5027B
:1000C000F902FF0203030E030903084AD73B3BCEA4
:1000D000016E84BCBFFDC12F3D6C74319ABD568347
:1000E0003DDA3D00C77F11BED9E4BB4C3E916BAAFF
:1000F000AABE000000803F05A84CCDB2D44EB9384E
:1001000036A9020C50B9918688083CA6AAAA2ABE34
:10011000000000803F0664EC1B3C04BC163E3BE53F
:10012000B93CC93C37C29E5A3D660498083EEA690C
:10013000AAAA3E000000803F4F46460041424F556C
:1001400054004241545400205341564500204C4F26
:1001500041440020434C4541520020424C41434B16
:10016000002057484954450045444954204D4150CA
:100170000020524553455400204D455353414745B7
:10018000530020534B5900205354415455530020E1
:10019000434F4E54524153540020534F554E440048
:1001A00020454E454D4945530020414D4D4F0020BF
:1001B0004D454449002032442F33440053455454A4
:1001C000494E4753004E45572047414D45005B433C
:1001D0005D204445455445450056312E302020329F
:1001E000303138004152454E4100474F4E450045A1
:1001F0004D505459004F43544F004556494C004E02
:10020000495445005441555200524F424F004D450C
:10021000444900414D4D4F00C501BC01B501AF013E
:10022000A901A00199018F01870182017801710163
:10023000680161015A0153014D01470142013C012E
:10024000380100000000250028002B002E0031009E
:1002500000000000240027002A002D0030000404C4
:10026000040404030405020202020403020202025F
:100270000606060606060404020202040404080236
:10028000011040804010204080408008020401801E
:1002900040201002011080102040402013020E0266
:1002A00009020402FF01FA01F501EF01EA01E4018C
:1002B000D901CE01D5F08D14A1C881CFD9F1AF20DD
:1002C00000000000002300260029002C002F000061
:1002D00000000200090F0000030401000C000000F0
:1002E000000000000000000000000000000000000E
:1002F00000000000002F00000007000700147F141A
:100300007F14242A7F2A1262640813233649552257
:10031000500005030000001C2241000041221C0087
:1003200014083E081408083E08080000A0600008F1
:1003300008080808006060000020100804027F41DF
:1003400041417F000000007F794949494F414949B7
:10035000497F0F0808087F4F494949797F49494932
:1003600079010101017F7F4949497F4F4949497F0F
:1003700000363600000056360000081422410014F2
:1003800014141414004122140802015109063249C0
:1003900059513E7F0909097F7F49494F787F414183
:1003A00041407F4141633E7F494949417F090909F5
:1003B000017F414949797F0808087F00007F0000DC
:1003C000404040407F7F08080F787F404040407F9A
:1003D0000107017F7F017F407F7F4141417F7F098E
:1003E00009090F7F4171417F7F0909790F4F494901
:1003F000497801017F01017F4040407F1F704070BC
:100400001F7F4070407F780F080F780F087C080F1F
:1004100071515D4547007F414100020408102000F2
:1004200041417F0004020102044040404040143634
:100430007736145C7677765C3E3622363E3AFD7F20
:10044000FD3AEB744474EB1FE87FC77C0E3B4F3BD7
:100450000ECE37FF37CE7F0804047800447D40007D
:100460004080847D007F1028440000417F40007C54
:10047000041804787C08040478FC6E3F6EFC7E1A35
:100480007E765C7EFFDBC3667E1E3C787E2070F845
:1004900020F87838B84820A0B0F8B0A02048B83884
:1004A00078F820F870202090E8E0F02868F86828B4
:1004B000F0E0E89020081C3E7F000000FF000000F4
:1004C0007F3E1C08067F017F01080B00020202012B
:1004D00000090400000102020000052400100105CB
:1004E00024010101042402060524060001070581F8
:1004F0000310004009040100020A00000007050281
:100500000240000007058302400000040309044183
:10051000726475696E6F204C4C430041726475695A
:100520006E6F204D6963726F0012010002000000BF
:10053000404123378000010102030112010002EF54
:100540000201404123378000010102030100741FB2
:1005500011241FBECFEFDAE0DEBFCDBF25E0ACE84F
:10056000B2E001C01D92A939B207E1F712E0A0E0A4
:10057000B1E0EAE5F8E402C005900D92AC38B107AD
:10058000D9F712E0C8EAD2E004C02197FE010E9428
:10059000A91FC73AD107C9F70E9486100C942B24D3
:1005A0000C94000090E0FC013197EF30F105B0F5BC
:1005B000EA5AFF4F0C94A91F809180008F7703C0E7
:1005C000809180008F7D80938000089580918000CD
:1005D000877FF9CF84B58F7702C084B58F7D84BDC6
:1005E0000895809190008F7707C0809190008F7D53
:1005F00003C080919000877F809390000895809140
:10060000C0008F7703C08091C0008F7D8093C000B1
:1006100008958091C200877F8093C20008953FB7FC
:10062000F8948091220490912304A0912404B09125
:10063000250426B5A89B05C02F3F19F00196A11DE2
:10064000B11D3FBFBA2FA92F982F8827820F911D68
:10065000A11DB11DBC01CD0142E0660F771F881FAF
:10066000991F4A95D1F7089508950895CF93DF9380
:10067000282F30E0F901E153FD4F8491F901E3584F
:10068000FD4FD491F901E25AFD4FC491CC2391F072
:1006900081110E94D202EC2FF0E0EE0FFF1FEF530A
:1006A000FD4FA591B491EC91ED2381E090E021F410
:1006B00080E002C080E090E0DF91CF9108951F9329
:1006C000CF93DF93282F30E0F901E153FD4F849160
:1006D000F901E358FD4FD491F901E25AFD4FC4915D
:1006E000CC23C9F0162F81110E94D202EC2FF0E02A
:1006F000EE0FFF1FEE5BFD4FA591B4918FB7F894FD
:10070000111105C09C91ED2FE095E92302C0EC91F9
:10071000ED2BEC938FBFDF91CF911F9108958F92B6
:100720009F92AF92BF92CF92DF92EF92FF926B01B6
:100730007C010E940F034B015C01C114D104E10450
:10074000F104F1F00E940F03DC01CB018819990933
:10075000AA09BB09883E9340A105B10570F321E0C9
:10076000C21AD108E108F10888EE880E83E0981ECD
:10077000A11CB11CC114D104E104F10419F7DDCFAF
:10078000FF90EF90DF90CF90BF90AF909F908F90B1
:1007900008952FB7F89460911E0470911F04809102
:1007A0002004909121042FBF08951F920F920FB63D
:1007B0000F9211242F933F938F939F93AF93BF93E7
:1007C00080911E0490911F04A0912004B0912104F7
:1007D00030911D0423E0230F2D3720F40196A11D35
:1007E000B11D05C026E8230F0296A11DB11D20935F
:1007F0001D0480931E0490931F04A0932004B093C3
:1008000021048091220490912304A0912404B091AA
:1008100025040196A11DB11D809322049093230409
:10082000A0932404B0932504BF91AF919F918F9121
:100830003F912F910F900FBE0F901F9018951F9210
:100840000F920FB60F9211242F933F934F935F9304
:100850006F937F938F939F93AF93BF93EF93FF9388
:10086000E0910801F09109010995FF91EF91BF9185
:10087000AF919F918F917F916F915F914F913F9138
:100880002F910F900FBE0F901F9018951F920F92EF
:100890000FB60F9211242F933F934F935F936F9353
:1008A0007F938F939F93AF93BF93EF93FF93E091C9
:1008B0000601F09107010995FF91EF91BF91AF916A
:1008C0009F918F917F916F915F914F913F912F9168
:1008D0000F900FBE0F901F9018951F920F920FB69A
:1008E0000F9211242F933F934F935F936F937F93B6
:1008F0008F939F93AF93BF93EF93FF93E091040186
:10090000F09105010995FF91EF91BF91AF919F91F2
:100910008F917F916F915F914F913F912F910F90A8
:100920000FBE0F901F9018951F920F920FB60F9247
:1009300011242F933F934F935F936F937F938F93E4
:100940009F93AF93BF93EF93FF93E0910201F091D8
:1009500003010995FF91EF91BF91AF919F918F9105
:100960007F916F915F914F913F912F910F900FBEAB
:100970000F901F9018951F920F920FB60F9211248F
:100980002F933F934F935F936F937F938F939F9397
:10099000AF93BF93EF93FF93E0910001F0910101BA
:1009A0000995FF91EF91BF91AF919F918F917F91A9
:1009B0006F915F914F913F912F910F900FBE0F90CC
:1009C0001F9018950C94BA230C94B223EF92FF92C7
:1009D0000F931F93CF93DF93442321F0873328F0A5
:1009E00086E303C08D3208F08CE270E0605271093A
:1009F00095E0969F7001979FF00C112490E08B5C1E
:100A00009B4F00E010E0502FDC011396EC0160E0FA
:100A100070E0FB01EE0DFF1DE251FD4F249130E02F
:100A2000052E02C0359527950A94E2F7E22FE37070
:100A3000F8E0EF9F900111242E2B2171322F330FFC
:100A4000232B322F330F232B322F330F232B44230F
:100A500019F02883298308C0FD013397208331963C
:100A60002083319620832C936F5F7F4F22961496BC
:100A70006530710571F6805C9F4F0E5F1F4F083027
:100A8000110509F0C0CFDF91CF911F910F91FF9019
:100A9000EF9008956091EB0382E090E00E94E20401
:100AA0006091EA0383E090E00E94E2046091E90330
:100AB00084E090E00E94E2046091F10385E090E020
:100AC0000E94E20460910A0186E090E00E94E20444
:100AD0006091E80387E090E00E94E2046091E70300
:100AE00088E090E00E94E2046091E60389E090E0F3
:100AF0000C94E2041092EB0381E08093F103809365
:100B0000EA038093E90380930A018093E6038093CC
:100B1000E7038093E8030C944A05E82FF0E0EE0F1A
:100B2000FF1FE456FD4F659174918CE892E00E949E
:100B3000AB230E94C9036093E1037093E2038093A7
:100B4000E3039093E40381E08093E0030895CF9260
:100B5000DF92EF92FF920F931F93CF93C62F682FD0
:100B600070E080E090E00E94132104EF13E0F801B0
:100B700020813181428153810E94C31F0E94DB206A
:100B80006B017C016C2F70E080E090E00E941321EB
:100B9000F80124813581468157810E94C31F0E943C
:100BA000DB20CC9C9001CD9C300D300D1124669F34
:100BB000A001679F500D500D1124B901640F751FDE
:100BC000072E000C880B990B0E9413210E94B12262
:100BD0000E94E220862FCF911F910F91FF90EF90FE
:100BE000DF90CF9008958034C8F46032B8F4E62FD7
:100BF000E695E695E69590E4E99FF0011124E80F6B
:100C0000F11DEB5CFB4F677081E090E001C0880F45
:100C10006A95EAF780959081892380830895FF92F1
:100C20000F931F93CF93DF9300D0CDB7DEB7F82E8D
:100C3000162F4F15A0F0012F201778F08FE38F1596
:100C400050F0003240F4602F8F2D2A8349830E9498
:100C5000F30549812A810F5FEFCFF394EACF0F901C
:100C60000F90DF91CF911F910F91FF9008958034E5
:100C7000C0F46032B0F4E62FE695E695E69590E490
:100C8000E99FF0011124E80FF11DEB5CFB4F677049
:100C900081E090E001C0880F6A95EAF79081892B86
:100CA000808308958034D8F46032C8F4962F9695E6
:100CB00096959695E82FF0E0E55FFE4F80E4989FCB
:100CC000E00DF11D1124808190E0677002C09595C0
:100CD00087956A95E2F780FD04C080E0089581E081
:100CE000089582E008950F931F93CF93DF93D82F39
:100CF000C62F6091F4037091F5038091F6039091F3
:100D0000F7030E94E220062F6091F8037091F90327
:100D10008091FA039091FB030E94E220162FD017D6
:100D2000A1F01C1708F4C150C11708F4CF5F0D17CC
:100D300008F4D150D01708F4DF5F6C2F8D2F0E947C
:100D40005206882361F380E003C0C113EACF81E03B
:100D5000DF91CF911F910F9108958F929F92AF9243
:100D6000BF92CF92DF92EF92FF926B017C0149011B
:100D70005A0120E030E0A9010E945F2087FD55C0A4
:100D800020E030E04CE752E4C701B6010E9429227E
:100D900018160CF44AC020E030E0A901C501B401E6
:100DA0000E945F2087FD41C020E030E048EF51E421
:100DB000C501B4010E9429221816BCF120E030E0E0
:100DC000A901C501B4010E94292220E030E040E0E1
:100DD0005FE387FD05C0C501B4010E94C41F04C0C4
:100DE000C501B4010E94C31F0E94DB20B62E20E083
:100DF00030E0A901C701B6010E94292220E030E0BD
:100E000040E05FE387FD05C0C701B6010E94C41F33
:100E100004C0C701B6010E94C31F0E94DB20862FB9
:100E20006B2D0E94520691E0811190E0892FFF9076
:100E3000EF90DF90CF90BF90AF909F908F900895EC
:100E40002F923F924F925F926F927F928F929F92DA
:100E5000AF92BF92CF92DF92EF92FF920F931F93C8
:100E6000CF93DF9300D0CDB7DEB78CE0EBE1F2E0BB
:100E7000A4EFB3E001900D928A95E1F710E001E153
:100E800080E2C82ED12CE12CF12C212E312C209186
:100E9000E9038091EA0390E0820F911D3091F10304
:100EA000AC01430F511D241635060CF0AFC01217CC
:100EB00068F02816390664F00E949D2325E030E092
:100EC00040E050E00E94C8236E5F03C060E001C0B4
:100ED00061E0262F30E0029DC001039D900D11249A
:100EE000AC0144565D4F4A01F901E359FD4F808141
:100EF000FA018083F901EA59FD4F8081FA0181836B
:100F0000F901E15AFD4F8081FA018283F901E85A23
:100F1000FD4FB080FA01B382F901EF5AFD4F6081B5
:100F200070E080E090E029833A830E941121F4016F
:100F3000648375838683978329813A81F901E65B0F
:100F4000FD4F608170E080E090E00E941121F4018B
:100F5000608771878287938729813A81F901ED5BE8
:100F6000FD4F8081F4018487F901E45CFD4F8081AD
:100F7000F4018587F901EB5CFD4F8081F4018687E0
:100F8000F901E25DFD4F8081F4018787F901E95D98
:100F9000FD4F8081F401808BBB20B1F10E949D2325
:100FA00020E430E040E050E00E94C82377247A94A7
:100FB000760E0E949D23A70196010E94C8236150CE
:100FC00070E080E090E00E9411214B015C01672DF0
:100FD00070E080E090E00E9411212B013C01A5010E
:100FE00094010E94AD068823C9F2029DF001039D81
:100FF000F00D1124E456FD4F4482558266827782BB
:1010000080869186A286B3861F5F3FCF0F900F9098
:10101000DF91CF911F910F91FF90EF90DF90CF90D4
:10102000BF90AF909F908F907F906F905F904F9008
:101030003F902F9008950E94C9036093E10370933D
:10104000E2038093E3039093E403609306047093B8
:10105000070480930804909309046093020470933A
:101060000304809304049093050481E08093EF03CC
:101070008093E60380930A0410929B0210929902D7
:101080001092F0031092E0031092000410920104F9
:101090009FE09093DF031092EC038093E50380932D
:1010A0009A02809398021092EE031092ED03109230
:1010B000F20383E68093F3030C942007CF939C0103
:1010C00080910A018823D1F0C62F80E4809390009C
:1010D000032E000C440B550B60E472E48FE090E0AB
:1010E0000E94C82330939900209398006C2F70E0E1
:1010F00080E090E00E948F0310929000CF910895BD
:1011000061E08AE00E945F0361E08BE00E945F0380
:1011100061E089E00E945F035D9A289A10921C04A6
:1011200008950F931F93CF9388E00E943603892B75
:10113000D9F087E00E943603892BC1F083E10E9439
:101140003603892BA9F085E10E943603892B91F0A3
:1011500084E10E943603892B79F082E10E943603F4
:10116000892B61F0C0E00BC0C2E409C0C1E407C034
:10117000C2E505C0C4E403C0CCE401C0C5E580916C
:101180001B04C81317C00E94C903009117041091D3
:1011900018042091190430911A04DC01CB01801B42
:1011A000910BA20BB30B8B3F9105A105B10510F478
:1011B000C0E00CC0C0931B040E94C90360931704D5
:1011C000709318048093190490931A048C2FCF9174
:1011D0001F910F91089520EE240F2F3570F59C017B
:1011E000CC9714F02BE330E0CB016430710514F0A0
:1011F00083E090E056E0880F991F5A95E1F7820F3F
:10120000931F50E04052510925E0249FB001259FD3
:10121000700D112420E030E0F901E60FF71FE251D4
:10122000FD4FE491D901A80FB91FAB5CBB4FEC9304
:101230002F5F3F4F2530310579F708951F93CF93E6
:10124000DF93962F21E1829FF0011124E456FD4F98
:1012500060816F59453050F49B3050F040E086EF8C
:10126000890FDF91CF911F910C94E604493068F407
:10127000963068F0892F90E0462F62E070E0059785
:10128000DF91CF911F910C94C70B4D3068F49430CF
:1012900058F0892F90E0462F62E070E00397DF91CD
:1012A000CF911F910C94EB08C92F1EEF190F62E12B
:1012B000812F0E943706DFEFDC0F62E18D2F0E9445
:1012C000370662E18C2F0E94370663E1812F0E946E
:1012D000370663E18D2F0E94370663E18C2FDF9183
:1012E000CF911F910C943706AF92BF92CF92DF92AD
:1012F000EF92FF920F931F93CF93DF93FA01019028
:101300000020E9F731979F01241B350BF22EC82FDF
:101310008C3308F0CBE3D62F643008F0D3E0922F63
:10132000990F290F220F2C3308F02BE39D2F30E06B
:101330002C0F311D70E4979FF00111247C2FEB5C82
:10134000FB4FA72FB0E0A217B3072CF4AE0FBF1FBF
:101350001C927F5FF6CF9F5FD91760F7E42EC42FF2
:10136000D52FC12CD12CA62EB12C082F10E08C2FFC
:101370008E198F1578F49CE3C916D10459F0499160
:10138000B501C601800F911F0E94EB0886E0C80ED0
:10139000D11CEDCFDF91CF911F910F91FF90EF9076
:1013A000DF90CF90BF90AF90089580E091E0E5E3AB
:1013B000F4E0DF019C011D9221503040E1F70895D7
:1013C0008EBD00000DB407FEFDCF0895BF92CF92F1
:1013D000DF92EF92FF920F931F93CF93DF9385E3FA
:1013E000C82E84E0D82ED4E000E010E0B02EE12C2E
:1013F000F12CF601EE0DFF1D808190E00B2C02C058
:10140000959587950A94E2F7C82FCF7024E0C29F84
:10141000C00111248C2B8373C82FCC0F8C2B8575A6
:10142000C82FCC0FC82B8C2F0E94E0098C2F0E9454
:10143000E0098FEFE81AF80A20E4E216F104C9F691
:101440000C5F1F4F0830110589F6D15080E4C80E9B
:10145000D11CD111C9CFDF91CF911F910F91FF9076
:10146000EF90DF90CF90BF900895CF93C82F5C98F6
:1014700081E80E94E0098C2F0E94E0095C9A6C2FA1
:1014800080E090E0CF910C94E2041F93CF93DF9320
:1014900065E070E080E090E00E948F035F9A65E075
:1014A00070E080E090E00E948F035E985C98C4EB4F
:1014B000D2E01C2F135FFE0184910E94E009219667
:1014C0001C13F9CF5C9ADF91CF911F910895FC0115
:1014D00080912804811103C08FEF9FEF08959FB77B
:1014E000F89482E08093E9002091F20030E0121637
:1014F000130614F421E030E02115310559F0289A43
:1015000084E6809327048091F10080838091F2002B
:10151000882319F09FBFC90108958BE68093E800E6
:10152000F9CFCF92DF92EF92FF920F931F93CF9359
:10153000DF936C017A018B01C0E0D0E0CE15DF05AE
:1015400089F0D8016D918D01D601ED91FC9101904A
:10155000F081E02DC6010995892B11F47E0102C0AE
:101560002196ECCFC701DF91CF911F910F91FF9092
:10157000EF90DF90CF900895CF93DF931F92CDB778
:10158000DEB76983DC01ED91FC910280F381E02DEF
:1015900041E050E0BE016F5F7F4F09950F90DF91F2
:1015A000CF91089583E08093E9008091F200882331
:1015B00019F08AE38093E8000895CF93DF931F9298
:1015C000CDB7DEB7FC018485958597FD05C02FEF6B
:1015D0003FEF358724870BC0CE0101960E94670A32
:1015E000019719F4898190E002C08FEF9FEF0F906F
:1015F000DF91CF9108950F931F93CF93DF931F92A5
:10160000CDB7DEB78C01FC018485958597FF0EC0B0
:10161000CE0101960E94670A019719F4298130E0F2
:1016200002C02FEF3FEFF80135872487F80184854A
:1016300095850F90DF91CF911F910F910895FC0137
:101640008485958597FD0BC09FB7F89482E08093C1
:10165000E9008091F2009FBF90E0019608959FB746
:10166000F89482E08093E9008091F2009FBF90E0BF
:1016700008950E9443238F929F92AF92BF92CF9280
:10168000DF92EF92FF920F931F93CF93DF935C0152
:101690006B018A0180911202882309F45EC0809157
:1016A0002804882309F459C08091260480FF05C0CE
:1016B0008091E00082608093E000E8018AEFF82EDC
:1016C00093E0E92E2FE3822E3AE3932E209709F43C
:1016D0003DC08FB7F894E092E9009091E80095FF43
:1016E00006C09091F200282D291B922F01C090E096
:1016F0008FBF91110AC0FA94FF2079F161E070E088
:1017000080E090E00E948F03E1CF292F30E0C217E4
:10171000D3070CF49C2F8FB7F894E092E900209146
:10172000E80025FF11C0292F30E0C21BD30BF601C2
:10173000915020F041914093F100FACFC20ED31E98
:101740009091E80095FF13C08FBFC0CF5D9A84E6EB
:10175000809335051016110644F081E090E0F50104
:101760009383828380E090E005C0C80103C090921B
:10177000E800EACFDF91CF911F910F91FF90EF909A
:10178000DF90CF90BF90AF909F908F900895FF9281
:101790000F931F93CF93DF9350E04052510925E000
:1017A000249F8001259F100D11249B01633071053A
:1017B00014F022E030E046E0220F331F4A95E1F7B3
:1017C000AC01C79714F046E350E0240F351F60E0EA
:1017D00070E0C0E0D0E0F62EDE01A20FB31FAB5CDC
:1017E000BB4F40E050E0FA01E00FF11FE251FD4F26
:1017F000849190E00F2C02C0959587950A94E2F7AA
:10180000E82FEF70F4E0EF9FC00111248E2B83735B
:10181000982F990F892B8575982F990F892B8C9369
:1018200011968C9311974F5F5F4F1296453051057B
:10183000D1F6C05CDF4F6C5F7F4F6830710559F6A1
:10184000DF91CF911F910F91FF9008952F923F92BA
:101850004F925F926F927F928F929F92AF92BF92C0
:10186000CF92DF92EF92FF920F931F93CF93DF936C
:1018700000D000D0CDB7DEB76C015B01F42E298318
:10188000681B790B072E000C880B990B5A830E945A
:1018900013210E94B1220E94E220FB825A815C83C4
:1018A000062F10E01601200E311E2501401A510AA4
:1018B00080E2E82E90E6692E26E4722E3AE0832E2E
:1018C000912C0E9491088823A1F1823411F48B811C
:1018D00072C0813409F46EC0823541F48B819C81E1
:1018E000481659060CF1800F911F1BC0843439F43F
:1018F0008B819C81C816D906BCF4019712C08C3428
:1019000041F48B819C81821593058CF0801B910B97
:1019100008C0853571F48B819C818A159B053CF448
:1019200001969C838B8305C0BC82AB8202C0DC82A3
:10193000CB82E0922C04E0922D0410922E0460924F
:10194000290499819130F1F48B819C8164E670E0E7
:101950000E94951FCB01B4010E94951F805D80936A
:101960002A048B819C81B4010E94951F282FCB01F2
:10197000B4010E94951F805D80932B04205D20930D
:101980002C040FC08FE480932A048B819C81892BC7
:1019900021F09EE490932B0404C070922C0470926A
:1019A0002B0449E254E060E084E20E9474090E9442
:1019B000E60987CF8F2D0F900F900F900F90DF913A
:1019C000CF911F910F91FF90EF90DF90CF90BF903C
:1019D000AF909F908F907F906F905F904F903F90CF
:1019E0002F90089580918A0581110DC082E0809327
:1019F000860584E0809387051092890510928805FA
:101A000081E080938A0586E895E008951F920F9201
:101A10000FB60F9211248F939F938091E1009091C4
:101A2000E100937F9093E10083FF0FC01092E900E3
:101A300091E09093EB001092EC0092E39093ED0014
:101A40001092280498E09093F00082FF20C093E069
:101A50009093E9009091F200992319F09AE3909302
:101A6000E80090913505992339F090913505915012
:101A700090933505992389F190912704992339F0A2
:101A800090912704915090932704992341F184FF6A
:101A900010C08091E2008E7E81608093E200809190
:101AA000E1008F7E8093E100809126048E7E80612C
:101AB00011C080FF16C08091E2008E7E806180930D
:101AC000E2008091E1008E7E8093E1008091260407
:101AD0008E7E81608093260404C05D98CDCF2898C7
:101AE000D6CF9F918F910F900FBE0F901F9018959A
:101AF0004091970550919805209195053091960554
:101B000042175307B4F49091E8009570E1F3909177
:101B1000E80092FD19C08093F100809197059091A3
:101B2000980501968F739927892B19F48EEF80936E
:101B3000E8008091970590919805019690939805FB
:101B40008093970581E0089580E00895CF92DF9219
:101B5000EF92FF920F931F93CF93DF931F92CDB716
:101B6000DEB7182F062FE42E862F880F8E5F9983FD
:101B70000E94780D83E00E94780DF12EC12E99818C
:101B8000D92E8C2D8F19801798F4F601E7FE02C02C
:101B9000849101C080810E94780D182F80E00E94FE
:101BA000780D8123FFEFCF1ADF0A8111EACF01C040
:101BB00081E00F90DF91CF911F910F91FF90EF90F7
:101BC000DF90CF900895DF92EF92FF920F931F93D3
:101BD000CF93DF93D82E8A017B01E40EF51EEB0133
:101BE000CE15DF0571F0D7FE03C0FE01849101C060
:101BF00088810E94780D21968111F2CF8FEF9FEF9F
:101C000001C0C801DF91CF911F910F91FF90EF901C
:101C1000DF900895615030F02091F100FC012083A5
:101C20000196F8CF289A84E68093270408950F93AD
:101C30001F93CF93DF931F92CDB7DEB782E08983E6
:101C400042E450E069EC74E080E80E94E30D0E94F9
:101C5000F20CDC0112960D911C91139701151105E0
:101C600069F0D801ED91FC910280F381E02DBE0175
:101C70006F5F7F4FC801099597FF07C089810F905B
:101C8000DF91CF911F910F910895F8010085118583
:101C9000E5CF1F920F920FB60F921124CF92DF92D1
:101CA000EF92FF920F931F932F933F934F935F9366
:101CB0006F937F938F939F93AF93BF93EF93FF9314
:101CC000CF93DF93CDB7DEB76C97DEBFCDBF109259
:101CD000E9008091E80083FFFAC168E0CE014596F3
:101CE0000E940A0E82EF8093E8008D8987FF05C06D
:101CF0009091E80090FFFCCF03C09EEF9093E80026
:101D0000982F907609F0C6C09E892F89188D911161
:101D10000CC0803829F4809193058093F10002C0B3
:101D20001092F1001092F10047C1422F50E0512B68
:101D3000913051F4811140C14130510509F03CC14D
:101D4000809193058D7F0BC0933061F4811134C174
:101D50004130510509F030C1809193058260809334
:101D600093052AC1953041F48091E80080FFFCCFB3
:101D700020682093E30020C1963009F05FC0EB8C0F
:101D8000FC8C1092E9001092980510929705123081
:101D900091F510929605109295050E94170E99E004
:101DA000BE016F5F7F4FDB01E92F1D92EA95E9F7D6
:101DB00099831A8391E09E8390EA98879AEF998796
:101DC0002091970530919805275F3F4F3C832B83E7
:101DD0008D831092E9001092980510929705F09269
:101DE0009605E092950549E050E080E00E94E30D01
:101DF0000E94170EE1C0F0929605E09295050E94B0
:101E0000F20CDC011296ED90FC901397E114F104B2
:101E100009F4C0C0D701ED91FC910480F581E02D5B
:101E2000BE016B5E7F4FC7010995009719F00CF05A
:101E3000C3C0C6C0F701E084F184E8CF973009F44D
:101E4000BFC0983021F481E08093F100B5C0993093
:101E500009F0B2C0837009F0B3C0E5E8F2E081E0B8
:101E600021E036E39081992361F08093E90020938B
:101E7000EB0091919093EC003093ED008F5F8730F1
:101E800089F78EE78093EA001092EA008F898093A9
:101E9000280492C08B8D9C8D1092E90010929805B9
:101EA000109297059093960580939505898D8111E1
:101EB00056C08E899D89913A59F4813209F080C0CB
:101EC00047E050E06BE072E080E00E94E30D74C0F8
:101ED000913209F075C0833289F4888D90E0982F93
:101EE00088272F89822BA0E0B0E080931302909383
:101EF0001402A0931502B09316025EC0803269F4FA
:101F00008091E80082FFFCCF67E08BE092E00E94C6
:101F10000A0E8BEF8093E80006C0823209F04CC0B5
:101F20008F898093120280919205882319F0EEEF39
:101F3000FAE002C0E0E0F8E080910B0290910C0220
:101F4000A0910D02B0910E02803B9440A105B10515
:101F500009F088C08091120280FFA0C083C00E9457
:101F6000F20CDC0112960D911C91139701151105CD
:101F700039F1D801ED91FC910190F081E02DBE0185
:101F80006B5E7F4FC8010995811116C0F80100856D
:101F90001185ECCF1130C1F0133091F48F89882373
:101FA00009F455C08230E9F440E86DE08BE195E03A
:101FB0000E94A60D882321F08EEF8093E80087C051
:101FC00081E28093EB0083C08B8D9C8D089711F488
:101FD0001093940580919405811136C069E275E0F3
:101FE00038C0813029F440E86BE08FE095E0E0CF25
:101FF000833031F70E94F20CDC011296ED90FC90D8
:1020000013978E010F5F1F4F6801E114F10479F0FF
:10201000D701ED91FC910680F781E02DB801C70151
:102020000995080F111DF701E084F184EECFD80166
:102030001C92F60101900020E9F73197BF016C195D
:102040007D0940E0C601B4CF6BE375E002C06BE0F0
:1020500075E06115710509F4B3CFFB01449150E0BF
:1020600080E833CF0FB6F894A8958091600088611E
:1020700080936000109260000FBEA895EE3F2AE0AA
:10208000F20739F08091FE0A9091FF0A91838083D4
:1020900093CF1092FF0A1092FE0A8ECFEE3F8AE095
:1020A000F80731F0808191819093FF0A8093FE0AB6
:1020B00087E797E7918380839BE088E10FB6F894E8
:1020C000A895809360000FBE9093600075CF6C96CA
:1020D0000FB6F894DEBF0FBECDBFDF91CF91FF9159
:1020E000EF91BF91AF919F918F917F916F915F9190
:1020F0004F913F912F911F910F91FF90EF90DF90A3
:10210000CF900F900FBE0F901F901895CF93DF9335
:10211000CDB7DEB763970FB6F894DEBF0FBECDBF65
:10212000789484B5826084BD84B5816084BD85B5B2
:10213000826085BD85B5816085BD80916E008160BE
:1021400080936E0010928100809181008260809364
:102150008100809181008160809381008091800066
:1021600081608093800080919100826080939100D3
:1021700080919100816080939100809190008160B6
:10218000809390008091C10084608093C100809111
:10219000C10082608093C1008091C1008160809302
:1021A000C1008091C30081608093C3008091C00012
:1021B00082608093C0008091C20081608093C200E1
:1021C00080917A00846080937A0080917A008260A6
:1021D00080937A0080917A00816080937A00809168
:1021E0007A00806880937A001092280410929305F8
:1021F000109226048091D70081608093D70080EAF6
:102200008093D80089B5806189BD89B5826089BD18
:1022100009B400FEFDCF61E070E080E090E00E9434
:102220008F038091D8008F7C80618093D80080914B
:10223000E000807F8093E0008091E1008E7E8093BB
:10224000E1008DE08093E200559A209A5D982898ED
:10225000EEEFFFE7859194918B3F9C4D19F481E05F
:102260008093920585B1806F85B984B1877E84B9EA
:1022700084B1876E84B95E9A5F988AB1806D8AB99D
:10228000769A6E9881B3806F81BB899880B38D7088
:1022900080BB80E58CBD81E08DBD0E94450A81E850
:1022A00080936400809165008160809365008091D7
:1022B00064008260809364008091640080688093F1
:1022C0006400809164008860809364008091640061
:1022D00080648093640080916500816080936500D4
:1022E00084E680930B0482E10E943603892B49F433
:1022F0000E94D5090E94E60960E089E00E945F0320
:10230000FFCF109290008AE0809391003E9A3F9A0E
:102310000E941B0885E10E943603892B11F40E945C
:102320007A0582E090E00E94E40491E0811101C00E
:1023300090E09093EB0383E090E00E94E4048093AC
:10234000EA0384E090E00E94E4048093E90385E0DE
:1023500090E00E94E4048093F10386E090E00E9404
:10236000E40491E0811101C090E090930A0187E0BC
:1023700090E00E94E40491E0811101C090E090930C
:10238000E80388E090E00E94E40491E0811101C03C
:1023900090E09093E70389E090E00E94E40491E0EC
:1023A000811101C090E09093E6030E94200760E055
:1023B0008BE00E945F034FE661E070E080E090E018
:1023C0000E94C70B41E060E78BE00E94E60440E01A
:1023D00061E786E10E94E60441E062E78BE20E9449
:1023E000E6044FE661E070E086E390E00E94C70BF0
:1023F0000E94E6096CED75E080E090E00E948F039A
:102400000E94D50980E090E00E94E4040E94350A11
:102410000E94800811E10E94C90380910E04362FAA
:10242000381B832F90910D04992331F030930C04C5
:1024300010920D040C94BD1C90910B04391758F4A4
:102440008F5F891710F00C94BD1C81E083BF8895C5
:1024500013BE0C94BD1C81E080930D0460930E04A8
:1024600088E00E943603892B39F487E00E94360306
:10247000892B11F40C94C71C87E00E943603892B2A
:10248000D9F480910A04811117C00E94C903C09039
:102490000604D0900704E0900804F0900904DC01E1
:1024A000CB018C199D09AE09BF098B3F9105A10590
:1024B000B10510F00C94CB1C00910104011105C072
:1024C00080910004882309F4BAC00E94D50945E52B
:1024D00060E070E082E090E00E94C70B0023D9F03A
:1024E00044E460E070E083E190E00E94C70B49E4BF
:1024F00060E070E08DE190E00E94C70B45E460E091
:1025000070E087E290E00E94C70B44E460E070E076
:1025100084E390E013C047E560E070E086E190E07E
:102520000E94C70B4FE460E070E083E290E00E94FD
:10253000C70B4EE460E070E080E390E00E94C70BC0
:1025400042E662E070E083E090E00E94EB08609178
:10255000FE0370E080E090E00E9413212AE037ED56
:1025600043E250E40E9469200E94DB20AAE0EA2EA8
:10257000F12CCB01B7010E94951FCB01B7010E943E
:10258000951F40E3480F63E070E083E090E00E9415
:10259000EB0841E662E070E085E190E00E94EB0824
:1025A0006091FF0370E080E090E00E9413212AE038
:1025B00037ED43E250E40E9469200E94DB20CB010A
:1025C000B7010E94951FCB01B7010E94951F40E300
:1025D000480F63E070E085E190E00E94EB084091D5
:1025E000F30362E070E080E390E00E94EB08109259
:1025F0002C048091F2032AE0622F0E94891F905DD3
:10260000909329048FE280932A048091F1030E9421
:10261000891F905D90932B0449E254E063E08AE2C5
:102620000E9474090E94E60987E00E943603892B04
:1026300011F00C94BB1C0E941B080C94BB1C8091D5
:10264000F003882309F453C10E94D509EBE0F1E0BF
:10265000A5E3B4E081918D9342E0EB30F407D1F72C
:1026600088E00E943603892B09F046C08091EF0371
:102670000091EE03F090ED03602F8823F1F08F2D91
:102680000E9437065FE35F15B8F10032A8F5E02F2E
:10269000E695E695E69580E4E89FF0011124EF0DBC
:1026A000F11DE55FFE4F077081E090E001C0880FEB
:1026B0000A95EAF79081892B1EC08F2D0E94F305A1
:1026C0009FE39F15C8F00032B8F4E02FE695E69539
:1026D000E695A0E4EA9FF0011124EF0DF11DE55FFE
:1026E000FE4F077081E090E001C0880F0A95EAF77D
:1026F000809590818923808387E00E943603892B0F
:1027000011F41092F00383E10E943603892B51F4F7
:102710008091ED038F3320F48F5F8093ED0302C02F
:102720001092ED0385E10E943603892B51F48091CC
:10273000EE038F3120F48F5F8093EE0302C010927E
:10274000EE0384E10E943603892B49F48091ED0366
:10275000823010F0815001C08FE38093ED0382E15D
:102760000E943603892B49F48091EE03823010F0E9
:10277000815001C08FE18093EE030091ED0327E0CB
:102780000A32E0F44FE360E083E30E940F062AE0A0
:10279000802F622F0E94891F092F0E94891F40E30A
:1027A000490F60E070E084E390E00E94EB0840E3B2
:1027B000400F60E070E08AE390E01BC04FE160E012
:1027C00083E10E940F062AE0802F622F0E94891F5A
:1027D000092F0E94891F40E3490F60E070E084E107
:1027E00090E00E94EB0840E3400F60E070E08AE177
:1027F00090E00E94EB080091EE03033118F52FE101
:102800004BE067E180E00E940F062AE0802F622FF4
:102810000E94891F092F0E94891F40E3490F63E02E
:1028200070E080E090E00E94EB0840E3400F63E03E
:1028300070E086E090E00E94EB08FFE1EF2EF12CC3
:1028400000E241C020E14BE067E080E00E940F061B
:102850002AE0802F622F0E94891F092F0E94891F62
:1028600040E3490F61E070E080E090E00E94EB08F7
:1028700040E3400F61E070E0DCCF6091EE0396161C
:1028800028F46919882D89190E943706C82CD12C83
:102890005701B0E2AB0EB11CCA14DB04DCF0981493
:1028A00048F46091EE03862F90E08E159F0514F496
:1028B0000C94521FEEE1EE16F10411F40C946C1F0F
:1028C000EEE1EE2EF12C902E9E188090ED039814E0
:1028D000E8F6D3CF6091EE03961610F00C946F1FBC
:1028E0006919892D880D0E9437060C946F1F8091FD
:1028F0000A04882309F48FC20E949108882309F4EE
:102900004FC2823409F030C28091EC0381110EC0B5
:102910000E94C903611571058105910511F00E949E
:10292000A2230E941B0810920A043AC2823049F482
:102930009091EB0381E089278093EB0310920A04C6
:102940000EC0833079F44091EA0350E021E065E065
:1029500070E081E090E00E94260C8093EA030E94E0
:102960004A051EC2843069F44091E90350E021E039
:1029700065E070E081E090E00E94260C8093E9031E
:10298000EECF853069F44091F10350E021E069E039
:1029900070E081E090E00E94260C8093F103DFCF8D
:1029A000863089F440910A0150E022E061E070E055
:1029B00080E090E00E94260C91E0811101C090E03F
:1029C00090930A01CCCF883089F44091E80350E01D
:1029D00022E061E070E080E090E00E94260C91E04F
:1029E000811101C090E09093E803B9CF893089F458
:1029F0004091E70350E022E061E070E080E090E089
:102A00000E94260C91E0811101C090E09093E703B1
:102A1000A6CF8A3089F44091E60350E022E061E0DD
:102A200070E080E090E00E94260C91E0811101C0EE
:102A300090E09093E60393CF8B3019F40E947A05CF
:102A4000AFC18D3021F481E08093EF0305C08E305B
:102A500031F41092EF0381E08093F003A1C18F3035
:102A600041F4EBE0F1E0119222E0EB30F207D9F70C
:102A700097C190EF980F9230C8F54091E50350E070
:102A800021E063E070E081E090E00E94260C8093FA
:102A9000E5037BE0E72E71E0F72EC12CD12C90915D
:102AA000EC038091E503903161F490E0982F882742
:102AB000865F91098C0D9D1D0E94E404D7018C93C3
:102AC0000AC0F70160816C0D90E0982F8827865F1F
:102AD00091090E94E204FFEFCF1ADF0A2FEFE21AFA
:102AE000F20AC11431E0D306D1F65AC18730B9F4E5
:102AF00080E090E00E94E404482F50E021E06FEF76
:102B000070E080E090E00E94260C682F688B0E94A5
:102B1000350A688980E090E00E94E20441C1823178
:102B2000F1F5809164008E7F809364008EE5809340
:102B30007C0062E070E080E090E00E948F03809172
:102B40007A00806480937A0080917A0086FDFCCFC1
:102B500080916400816080936400209178003091BE
:102B60007900032E000C440B550B60E070E381E10B
:102B700090E00E94C823CA01B9010E94132120E0FD
:102B800030E040E251E40E9469200E94DB20DC0139
:102B9000CB0121E0AC01BC010E94260C01C18331B4
:102BA00009F06CC0EEEAF2E06591749189E294E07C
:102BB0000E94AB23E9E2F4E001900020E9F73197AD
:102BC000E952F440BE2E8CE08E9FE02D1124EC33B0
:102BD00008F0EBE320E0F0E0822F90E08E179F07F3
:102BE00014F020E00BC0DC01AB5CBB4F1C922F5FEC
:102BF000F3CFDC01AB58BB4F1C922F5F822F90E0CC
:102C00008E179F07B4F349E2C42E44E0D42EE12C82
:102C1000F12C00E00EC0053071F0D6014D916D0130
:102C200060E070E0C7010E94C70B0F5FBCE0EB0ED5
:102C3000F11C0B1580F3E0EBF2E06591749189E2F1
:102C400094E00E94AB2349E254E062E080E00E94FD
:102C50007409E2EBF2E06591749189E294E00E94DC
:102C6000AB2349E254E063E080E00E9474090E94D3
:102C7000E6090E9491088823E1F392C0843109F0AB
:102C80008FC00E9480085C988EEA0E94E0098DE85F
:102C90000E94E00980E10E94E00964E670E080E0C3
:102CA00090E00E948F035F98E5E8F2E02491E6E669
:102CB000F2E084918823C9F090E0880F991FFC010D
:102CC000E05BFD4FA591B491FC01EE5BFD4F85915A
:102CD00094914FB7F8945C91322F309535233C9303
:102CE000DC01EC912E2B2C934FBF25E333E0309386
:102CF00009012093080180916A008F7C80936A000B
:102D0000EE9A83B7817F846083BF83B7816083BF7E
:102D1000309309012093080180916A008F7C809391
:102D20006A00EE9A83B7816083BF889583B78E7FF0
:102D300083BF83B78E7F83BFEE9884E393E0909345
:102D40000901809308010E94450A80E090E00E94FA
:102D5000E4040E94350A68EC70E080E090E00E9494
:102D60008F030E9480081CC0813409F023C60E9492
:102D7000C903C0900204D0900304E0900404F090D2
:102D80000504DC01CB018C199D09AE09BF098B3FFD
:102D90009105A105B10508F034C602C01092EC03FC
:102DA00045E354E020E080E090E0FA01E80FF91FED
:102DB0001082019680349105C1F72F5F405C5F4F10
:102DC000243089F7E12CF12C8091EC03F701E80F16
:102DD000F11DE531F10584F4EE0FFF1FE85EFD4FB4
:102DE0006591749189E294E00E94AB2349E254E03A
:102DF0006E2D86E00E947409BFEFEB1AFB0AE4E037
:102E0000EE16F10409F74DE760E070E080E090E035
:102E10000E94EB08B0C50E94C903C090E103D090A6
:102E2000E203E090E303F090E403DC01CB018C19B2
:102E30009D09AE09BF09893E9340A105B10510F077
:102E40001092E00382E10E943603892B31F085E184
:102E50000E943603892B09F06CC085E10E9436037D
:102E6000892B09F0DBC56FEF7FEF072E000C880B75
:102E7000990B0E9413214B015C016091FC0370913E
:102E8000FD03072E000C880B990B0E9413212BEDDC
:102E90003FE049E450E40E94362220E030E044E381
:102EA00053E40E9469202B013C010E9464209B0195
:102EB000AC01C501B4010E9436222091F403309187
:102EC000F5034091F6035091F7030E94C41F6B0174
:102ED0007C01C301B2010E94A3229B01AC01C50188
:102EE000B4010E9436229B01AC016091F8037091FD
:102EF000F9038091FA039091FB030E94C31F4B01D9
:102F00005C019B01AC01C701B6010E94AD0688239C
:102F100081F0C092F403D092F503E092F603F092B0
:102F2000F7038092F8039092F903A092FA03B0920B
:102F3000FB0384E10E943603892BA9F42091DF036F
:102F40008091FC039091FD03820F911D883621E052
:102F500092072CF49093FD038093FC0304C010921D
:102F6000FD031092FC0383E10E943603892B81F458
:102F70002091DF038091FC039091FD03821B910956
:102F800097FF02C088599E4F9093FD038093FC03E6
:102F900088E00E943603892B09F041C08091FF032D
:102FA0008823E9F162E088E893E10E945E0880915D
:102FB000EB03811114C090911405809115058F7B4E
:102FC000209113052F7B206A209313059F75906431
:102FD00090931405806A809315050E94E60900E02D
:102FE000802F90E09A8389832091E9038091EA03FE
:102FF00090E0820F911D2091F103820F911DA98114
:10300000BA81A817B9070CF40CC58091FF03815051
:103010008093FF03811103C087E00E948D050E9409
:10302000C903C0901304D0901404E0901504F090EC
:103030001604DC01CB018C199D09AE09BF09893E3C
:103040009340A105B10508F477C0912C882483949E
:10305000CC24CA94D12CA92CB12C2091E9038091C5
:10306000EA0390E0820F911D2091F103820F911DE0
:10307000A816B9060CF04DC01A9DC0011B9D900DFD
:1030800011249C0124563D4F7901D9010C91011165
:103090001EC011968C911197882309F445C6189685
:1030A0006D917D918D919C911B970E94E220762ECF
:1030B000F70164817581868197810E94E220862FC5
:1030C000672D0E94A705853008F40DC62DC6013076
:1030D00009F02AC6D90111968C911197882309F419
:1030E00023C618966D917D918D919C911B970E949E
:1030F000E220762EF70164817581868197810E9496
:10310000E220862F672D0E94A705853008F472C63D
:103110000BC60E94C9036093130470931404809338
:1031200015049093160480919A028C3010F48F5FEE
:1031300001C081E080939A020E94C903C0900F04ED
:10314000D0901004E0901104F0901204DC01CB0147
:103150008C199D09AE09BF09893E9340A105B105AF
:1031600008F407C12091E9038091EA0390E0820FFF
:10317000911D2091F1031C01220E311CF091980247
:10318000FD832091F4033091F5034091F6035091B3
:10319000F70329833A834B835C834090F803509074
:1031A000F9036090FA037090FB0300E0C02ED12C6D
:1031B000C214D3040CF0CAC01C9DC0011D9D900D0B
:1031C0001124AC0144565D4F7A01DA0111968C91BD
:1031D0001197882309F4B8C012968C91129788230E
:1031E00009F4B2C01D966C911D978D810E94891FB4
:1031F0009111AAC014968D909D90AD90BC90179798
:1032000029813A814B815C81C501B4010E94292248
:1032100018169CF420E030E040E85FE3C501B401FB
:103220000E94C31F4B015C01F70120853185428557
:1032300053850E94AD06811119C61C9DC0011D9DBC
:10324000900D11249C0124563D4F7901D90114960B
:103250008D909D90AD90BC90179729813A814B81BC
:103260005C81C501B4010E945F2087FF13C020E08C
:1032700030E040E85FE3C501B4010E94C41F4B0188
:103280005C01F70120853185428553850E94AD069A
:103290008111F4C51C9DC0011D9D900D11249C0140
:1032A00024563D4F7901D90118968D909D90AD908F
:1032B000BC901B97A3019201C501B4010E94292271
:1032C0001816ACF420E030E040E85FE3C501B4013B
:1032D0000E94C31F4B015C01F701648175818681E7
:1032E0009781A50194010E94AD068111CDC51C9D59
:1032F000C0011D9D900D11249C0124563D4F790164
:10330000D90118968D909D90AD90BC901B97A3010C
:103310009201C501B4010E945F2087FF15C020E023
:1033200030E040E85FE3C501B4010E94C41F4B01D7
:103330005C01F7016481758186819781A501940103
:103340000E94AD068111A8C50F5F30CF0E94C9034E
:1033500060930F04709310048093110490931204EF
:10336000809198028C3010F48F5F01C081E08093CF
:1033700098020E94D5098091EB03882309F45AC072
:10338000EBE0F1E0A5E3B4E081918D9322E0EB3036
:10339000F207D1F76091F8037091F9038091FA0375
:1033A0009091FB030E94E220062F6091F40370913C
:1033B000F5038091F6039091F7030E94E220862F97
:1033C000602F0E94370600E0202F30E04091E90393
:1033D0008091EA0390E0840F911D4091F103840FE6
:1033E000911D281739070CF0C6C2129FC001139F08
:1033F000900D1124AC0144565D4F7A01DA0111960B
:103400008C9111978823A1F018966D917D918D91E3
:103410009C911B970E94E220D62EF7016481758152
:10342000868197810E94E220862F6D2D0E943706AB
:103430000F5FCACF2DB73EB73A8729872091E9039E
:103440008091EA0390E0820F911D2091F103820F99
:10345000911D4DB75EB7481B590B0FB6F8945EBF70
:103460000FBE4DBFADB7BEB71196B887AF8340E072
:10347000242F30E0281739073CF4EF81F885E20F5C
:10348000F31F10824F5FF4CF212C312CC10188969D
:103490008135910508F05CC1B101032C000C880B4B
:1034A000990B0E9413212DEC3CEC4CE45FE30E944D
:1034B00036229B01AC0160E070E080E092E40E9463
:1034C000C31F0E94E2206E83EFE0F0E0FA83E983FD
:1034D000F62FF250FF8729812D8349815A81BA0145
:1034E000550F880B990B0E9413216B017C01809171
:1034F000FC039091FD03820D931D88599E4F68E651
:1035000071E00E94951FBC01990F880B990B0E94D6
:1035100013212BED3FE049E450E40E94362220E0E5
:1035200030E044E353E40E9469202B013C010E94F7
:1035300064209B01AC01C701B6010E943622209194
:10354000F4033091F5034091F6035091F7030E9484
:10355000C41F4B015C0120E030E0A9010E94292238
:1035600020E030E040E05FE387FD05C0C501B40125
:103570000E94C41F04C0C501B4010E94C31F0E9461
:10358000DB20B62EC301B2010E94A3229B01AC0135
:10359000C701B6010E9436229B01AC016091F8037D
:1035A0007091F9038091FA039091FB030E94C31F6D
:1035B0002B013C0120E030E0A9010E94292220E0FB
:1035C00030E040E05FE387FD05C0C301B2010E9427
:1035D000C41F04C0C301B2010E94C31F0E94DB20AC
:1035E000A62E8B2D0E945206082F81110EC000E0DE
:1035F0008B2D90E0A0E0B0E08B879C87AD87BE87E5
:103600004A2C512C612C712C39C07D807A94A701F1
:10361000960160E070E084E092E40E94C31F0E9483
:10362000E22081E0860F781610F7FF24FA94F80E56
:10363000023010F0817001C080E06F2D9E81890FF3
:103640000E9437068F2DEFCF6B857C858D859E85FB
:103650000E9413211C9D90011D9D300D1124D90144
:10366000A456BD4F7D0114962D913D914D915C91D5
:1036700017970E945F20882391F00F5FC02ED12CF6
:103680002091E9038091EA0390E0820F911D20913F
:10369000F103820F911DC816D906B4F243C0C301CD
:1036A000B2010E941321F70120853185428553859F
:1036B0000E945F208111E1CF2F813885C20ED31E79
:1036C000D6018C918111D9CFF70181818823A9F28C
:1036D0006A2D8B2D0E947306882379F2FD81FC30C0
:1036E00068F4D70112968C911297811107C0E1E01E
:1036F0001296EC9312978C910E948D0580919B02FB
:103700004D81882339F06F85802F0E941E09109209
:103710009B0204C06E81802F0E941E09E1E0D60149
:10372000EC93ABCF29813A81215031093A83298327
:10373000232B09F0D0CE1214130424F431942194D5
:103740003108A4CE45E050E0421953091A019ECE3B
:1037500089859A850FB6F8949EBF0FBE8DBF809164
:10376000E703811182C08091E803882309F4CCC06B
:103770006091FE0370E080E090E00E9413212AE057
:1037800037ED43E250E40E9469200E94DB209AE07A
:10379000E92EF12CCB01B7010E94951FCB01B70197
:1037A0000E94951F40E3480F60E070E080E090E0E9
:1037B0000E94EB0842E661E070E080E090E00E9449
:1037C000EB086091FF0370E080E090E00E9413211D
:1037D0002AE037ED43E250E40E9469200E94DB209A
:1037E000CB01B7010E94951FCB01B7010E94951F25
:1037F00040E3480F60E070E08BE390E00E94EB084C
:1038000041E661E070E08BE390E00E94EB0827E185
:1038100045E067E180E00E940F064091F103405DC2
:103820008091F203481B63E070E080E090E00E942A
:10383000EB088091FC039091FD0389589E4F68E648
:1038400071E00E94951F6DE270E00E94951F43E7B2
:10385000460F63E070E08BE390E00E94EB088091FC
:103860001405806C809314054FC000E0F5E0DF2E56
:10387000AFE1EA2EFD2CF01AF09EF02C112460919D
:10388000FC037091FD03072E000C880B990B0E941E
:1038900013212BED3FE049E450E40E94362220E062
:1038A00030E044E353E40E9469200E94F5229B012A
:1038B000AC016F2D70E0660F771F072E000C880B90
:1038C000990B288B398B4A8B5B8B0E94132128899B
:1038D00039894A895B890E94362220E030E048EF2E
:1038E00051E40E94C41F0E94E220C62E6F2D8C2D31
:1038F0000E9437066E2D6F198C2D0E9437060F5FC0
:10390000033009F0B7CF2FCF8091E003882329F14E
:103910008091E603882309F100E086E0F82EECE8C8
:10392000F2E001900020E9F73197EC58F240802F47
:1039300090E0FE9E9001FF9E300D112482179307A8
:1039400030F467E1802F0E94F3050F5FE8CF4CE869
:1039500052E063E080E00E9474098091990288231C
:1039600051F040E051E06FEF70E085E394E00E9499
:103970004823109299020E94E60980E090E0892B8A
:1039800011F40C940B120E9400000C940A120E9475
:103990001B080C943C1281E080930A040E94C90326
:1039A00060930204709303048093040490930504CD
:1039B0000C945C12823541F48091EC03813110F457
:1039C0008C5F1CC084E11AC0843439F48091EC030C
:1039D000843108F0E3C98F5F11C08C3439F48091D1
:1039E000EC03853008F4DAC9845008C0853509F045
:1039F000D7C98091EC03882329F381508093EC038D
:103A0000CFC910920A040E94C90360930604709300
:103A100007048093080490930904C2C961E070E030
:103A200024CA49815A81149FC001159F900D112409
:103A3000DC01A456BD4F7D018C91823080F111963E
:103A40008C911197882359F118964D905D906D9047
:103A50007C901B97C301B2010E94E220A62EF701C1
:103A6000C480D580E680F780C701B6010E94E220BD
:103A7000B62E6A2D8B2D0E94A705282E312CFFE033
:103A80002F16310464F46A2D8B2D0E947306811168
:103A900008C005C0F8E26F1671040CF488C00F5F0F
:103AA0009FCA8090F4039090F503A090F603B09025
:103AB000F703C301B2010E94DB20072E000C880B24
:103AC000990B0E9413212091F8033091F903409142
:103AD000FA035091FB030E94C31F2B013C01C70155
:103AE000B6010E94DB20072E000C880B990B0E9468
:103AF0001321A50194010E94C31F9B01AC01C301C6
:103B0000B2010E9469200E94302020E030E044E3AE
:103B100053E40E9436222BED3FE049E450E40E943A
:103B200069200E94DB202B013C01A7019601C50101
:103B3000B4010E945F202091FC033091FD03181610
:103B4000ECF088E691E08419950968E671E00E943E
:103B5000951FA901481B590BCA0180539D4F68E668
:103B600071E00E94951F3C01813491400CF492CF8A
:103B700088E691E0861997093C0119C084EB90E032
:103B800084199509D901A81BB90BCD0180539D4F0C
:103B900068E671E00E94951F3C018134B1E09B070B
:103BA0000CF478CFE8E6F1E0E81BF90B3F016FE099
:103BB00070E062197309072E000C880B990B0E94A4
:103BC00013216B017C01B301770C880B990B0E94C8
:103BD000132120E030E040E252E40E9469209B0182
:103BE000AC0160E070E080E89FE30E94C31F9B018E
:103BF000AC01C701B6010E9436220E94DB20298158
:103C00003A81129FF001139FF00D1124E456FD4FED
:103C10004485242F30E06217730714F5842F861B28
:103C2000848765E088EE93E00E945E0831E030937F
:103C30009B0260E08BE00E945F0361E070E080E047
:103C400090E00E948F0361E08AE00E945F0361E0E0
:103C50008BE00E945F0361E089E00E945F031FCF59
:103C60001486118288E00E948D058091F2038F5F97
:103C70008093F2033091E9038091EA03282F230F08
:103C800090E0830F911D3091F103830F911D30E07F
:103C9000422F50E04817590764F4149FF001159F14
:103CA000F00D1124E456FD4F4181411131E02F5FA9
:103CB000EFCF3111F4CE41E04093000468EC86E090
:103CC00091E00E945E0868EC8AE491E00E945E0840
:103CD00068EC88E891E00E945E086FEF8BE092E06C
:103CE0000E945E08DCCE4091FF03D70150965C91A4
:103CF000242F30E0C601851B91092817390724F4C9
:103D0000450F4093FF0303C08FEF8093FF031A9D7D
:103D1000F0011B9DF00D1124E456FD4F11826CE360
:103D20008BE092E00E945E081A9DC0011B9D900DE1
:103D30001124FC01E456FD4F7F018181882309F4A1
:103D400057C0D70112968C911297882309F450C05E
:103D500080919A021E966C911E970E94891F911164
:103D600047C018966D917D918D919C911B970E94F3
:103D7000E220B62EF70164817581868197810E94C9
:103D8000E220A62E6B2D8A2D0E947306882381F1D6
:103D90006B2D8A2D0E94A705D7011F969C9198171D
:103DA00038F1809299028091FE03F701908989177A
:103DB00008F440C0891B8093FE0364E184E690E030
:103DC0000E945E0860E08AE00E945F0361E070E0AC
:103DD00080E090E00E948F0361E08AE00E945F0330
:103DE00061E08BE00E945F0361E089E00E945F0375
:103DF000939431C94091FE03D70150965C91242FD2
:103E000030E0C601851B91092817390724F4450FB6
:103E10004093FE0303C08FEF8093FE031A9DF001D1
:103E20001B9DF00D1124E456FD4F11826CE38BE0D5
:103E300092E019C01092FE030F590093F303809291
:103E4000010468EC8BE092E00E945E0868EC88E870
:103E500091E00E945E0868EC8AE491E00E945E08AE
:103E60006FEF86E091E00E945E08C2CFD701149602
:103E70008D929D92AD92BC921797DFC9F701848213
:103E80009582A682B78206CAD70118968D929D9216
:103E9000AD92BC921B972BCAF70180869186A286B1
:103EA000B38652CA690D882D89190E943706CA1433
:103EB000DB0414F00C945A146091EE03862F90E00A
:103EC0008E159F0514F00C945A14690D892D880DD8
:103ED0000E9437060C945A140E94E6094CCD98149F
:103EE00010F40C945114E8CFE6E3F5E0138212824B
:103EF00088EE93E0A0E0B0E084839583A683B78347
:103F000088E792E0918380838FEF9FEF9587848786
:103F10000895991B79E004C0991F961708F0961B25
:103F2000881F7A95C9F78095089597FB072E16F498
:103F3000009407D077FD09D00E94AF1F07FC05D081
:103F40003EF4909581959F4F0895709561957F4FB0
:103F50000895EE0FFF1F0590F491E02D0994AA1B20
:103F6000BB1B51E107C0AA1FBB1FA617B70710F064
:103F7000A61BB70B881F991F5A95A9F78095909596
:103F8000BC01CD0108955058BB27AA270E94DB1F12
:103F90000C94DB210E94A22138F00E94A92120F07C
:103FA00039F49F3F19F426F40C9478210EF4E0952F
:103FB000E7FB0C947221E92F0E94002258F3BA17F4
:103FC000620773078407950720F079F4A6F50C942F
:103FD00022220EF4E0950B2EBA2FA02D0B01B90171
:103FE00090010C01CA01A0011124FF27591B99F06F
:103FF000593F50F4503E68F11A16F040A22F232F7B
:10400000342F4427585FF3CF469537952795A795CA
:10401000F0405395C9F77EF41F16BA0B620B730B71
:10402000840BBAF09150A1F0FF0FBB1F661F771FE2
:10403000881FC2F70EC0BA0F621F731F841F48F497
:10404000879577956795B795F7959E3F08F0B0CF20
:104050009395880F08F09927EE0F97958795089507
:10406000DF93DD27B92FBF7740E85FE31616170609
:1040700048075B0718F4D92F0E942E229F938F9335
:104080007F936F930E94F122EAECF0E00E947B2183
:104090000E94DB212F913F914F915F910E94492215
:1040A000DD2351F09058A2EA2AED3FE049EC5FE3AE
:1040B000D0785D270E94DB1FDF910C94DB210E94EA
:1040C0004E2108F481E008950E94B221E3950C94FA
:1040D000EC210E947D200C94DB210E94A92158F044
:1040E0000E94A22140F029F45F3F29F00C94722134
:1040F00051110C9423220C9478210E94002268F321
:104100009923B1F3552391F3951B550BBB27AA2790
:1041100062177307840738F09F5F5F4F220F331FCA
:10412000441FAA1FA9F335D00E2E3AF0E0E832D092
:1041300091505040E695001CCAF72BD0FE2F29D095
:10414000660F771F881FBB1F261737074807AB0767
:10415000B0E809F0BB0B802DBF01FF2793585F4FDC
:104160003AF09E3F510578F00C9472210C94232272
:104170005F3FE4F3983ED4F3869577956795B795BE
:10418000F7959F5FC9F7880F911D9695879597F9C9
:104190000895E1E0660F771F881FBB1F6217730742
:1041A0008407BA0720F0621B730B840BBA0BEE1F57
:1041B00088F7E09508950E94E2206894B1110C946C
:1041C000232208950E94082288F09F5798F0B92F63
:1041D0009927B751B0F0E1F0660F771F881F991F3C
:1041E0001AF0BA95C9F714C0B13091F00E9422229A
:1041F000B1E008950C942222672F782F8827B85FAA
:1042000039F0B93FCCF3869577956795B395D9F793
:104210003EF490958095709561957F4F8F4F9F4F9D
:104220000895E89409C097FB3EF4909580957095A9
:1042300061957F4F8F4F9F4F9923A9F0F92F96E9F2
:10424000BB279395F695879577956795B795F11167
:10425000F8CFFAF4BB0F11F460FF1BC06F5F7F4F04
:104260008F4F9F4F16C0882311F096E911C0772316
:1042700021F09EE8872F762F05C0662371F096E81F
:10428000862F70E060E02AF09A95660F771F881FEE
:10429000DAF7880F9695879597F90895990F000892
:1042A000550FAA0BE0E8FEEF16161706E807F90708
:1042B000C0F012161306E407F50798F0621B730BA3
:1042C000840B950B39F40A2661F0232B242B252B24
:1042D00021F408950A2609F4A140A6958FEF811DC7
:1042E000811D089597F99F6780E870E060E0089568
:1042F0009FEF80EC0895DF93CF931F930F93FF926E
:10430000EF92DF927B018C01689406C0DA2EEF01F8
:104310000E944922FE01E894A5912591359145918D
:104320005591A6F3EF010E94DB1FFE019701A80142
:10433000DA9469F7DF90EF90FF900F911F91CF9182
:10434000DF91089500240A94161617061806090628
:10435000089500240A9412161306140605060895FB
:104360000C9478210E940822D8F3E894E0E0BB275F
:104370009F57F0F02AED3FE049EC06C0EE0FBB0F6F
:10438000661F771F881F28F0B23A620773078407F9
:1043900028F0B25A620B730B840BE3959A9572F76F
:1043A000803830F49A95BB0F661F771F881FD2F7AD
:1043B00090480C941C23092E0394000C11F48823BC
:1043C00052F0BB0F40F4BF2B11F460FF04C06F5FCD
:1043D0007F4F8F4F9F4F0895EF93E0FF07C0A2EAF2
:1043E0002AED3FE049EC5FEB0E94DB1F0E94DB21DE
:1043F0000F90039401FC9058E7EFF0E00C942F230A
:1044000057FD9058440F551F59F05F3F71F0479585
:10441000880F97FB991F61F09F3F79F0879508956A
:10442000121613061406551FF2CF4695F1DF08C089
:10443000161617061806991FF1CF869571056105A6
:1044400008940895E894BB2766277727CB0197F94E
:1044500008950E944E2108F48FEF08959B01AC014E
:1044600060E070E080E89FE30C9469200E9449229C
:104470000C94DB210E94A22138F00E94A92120F097
:10448000952311F00C9472210C94782111240C9432
:1044900023220E94002270F3959FC1F3950F50E0F4
:1044A000551F629FF001729FBB27F00DB11D639FE6
:1044B000AA27F00DB11DAA1F649F6627B00DA11D8C
:1044C000661F829F2227B00DA11D621F739FB00D32
:1044D000A11D621F839FA00D611D221F749F3327A2
:1044E000A00D611D231F849F600D211D822F762F3B
:1044F0006A2F11249F5750409AF0F1F088234AF018
:10450000EE0FFF1FBB1F661F771F881F9150504083
:10451000A9F79E3F510580F00C9472210C94232240
:104520005F3FE4F3983ED4F3869577956795B7950A
:10453000F795E7959F5FC1F7FE2B880F911D969524
:10454000879597F908959F930E94B2210F9007FCD9
:10455000EE5F0C94EC2119F416F40C9478210C9471
:104560001A230E940822B8F39923C9F3B6F39F5780
:10457000550B87FF0E9428230024A0E640EA900103
:1045800080585695979528F4805C660F771F881F92
:1045900020F026173707480730F4621B730B840B93
:1045A000202931294A2BA6951794079420253125D7
:1045B0004A2758F7660F771F881F20F026173707FE
:1045C000480730F4620B730B840B200D311D411D25
:1045D000A09581F7B901842F9158880F96958795FA
:1045E00008959B01AC010C943622DF93D92F0E94D1
:1045F000B221E695D7952AED3FE049E45FE3B33A6F
:104600006207730784079507D7953AF0A2EA49EC49
:1046100090680E94DB1F0E94DB21E5E1F1E00E942F
:104620002F23DD0F13F00E942E22DD0F0BF4905884
:10463000DF9108959F3F31F0915020F48795779551
:104640006795B795880F911D9695879597F9089569
:1046500091505040660F771F881FD2F708959F939F
:104660008F937F936F93FF93EF939B01AC010E9415
:104670003622EF91FF910E947B212F913F914F9124
:104680005F910C94362281E090E0F8940C942B24F6
:10469000DC0101C06D9341505040E0F708958F92C6
:1046A0009F92AF92BF92CF92DF92EF92FF92CF9301
:1046B000DF93EC01688179818A819B8161157105A5
:1046C0008105910521F464E279ED8BE597E02DE118
:1046D00033EF41E050E00E94C82349015A019B0199
:1046E000AC01A7EAB1E40E94E7236B017C01ACEEC8
:1046F000B4EFA50194010E94F523DC01CB018C0DE0
:104700009D1DAE1DBF1DB7FF03C00197A109B04895
:1047100088839983AA83BB83BC01CD019F77DF91F6
:10472000CF91FF90EF90DF90CF90BF90AF909F9090
:104730008F9008950E944F23089587E192E00E9490
:104740004F23089560931702709318028093190203
:1047500090931A020895FB01DC0105900D92002050
:10476000E1F70895F999FECF92BD81BDF89A992796
:1047700080B50895262FF999FECF1FBA92BD81BD4D
:1047800020BD0FB6F894FA9AF99A0FBE01960895D3
:10479000052E97FB1EF400940E94DF2357FD07D0DF
:1047A0000E94FA2307FC03D04EF40C94DF235095AB
:1047B0004095309521953F4F4F4F5F4F089590950D
:1047C0008095709561957F4F8F4F9F4F08950E9400
:1047D0001C24A59F900DB49F900DA49F800D911D4A
:1047E00011240895B7FF0C94E7230E94E723821B4E
:1047F000930B0895A1E21A2EAA1BBB1BFD010DC04D
:10480000AA1FBB1FEE1FFF1FA217B307E407F50780
:1048100020F0A21BB30BE40BF50B661F771F881F5C
:10482000991F1A9469F760957095809590959B01F2
:10483000AC01BD01CF010895A29FB001B39FC0019B
:10484000A39F700D811D1124911DB29F700D811DBC
:0A4850001124911D0895F894FFCF84
:10485A003403340334033403340301010000000039
:10486A00000000010000000000000001000000003C
:10487A00000000010000000000000001000000002C
:10488A00000000010000000000000001000000001C
:10489A00000000010000000000000001000000000C
:1048AA0000000001000000000000000100000000FC
:1048BA0000000001000000000000000100000000EC
:1048CA0000000001000000000000000100000000DC
:1048DA0000000001000000000000000100000000CC
:1048EA0000000001000000000000000100000000BC
:1048FA0000000001000000000000000100000000AC
:10490A00000000010000000000000001000000009B
:10491A00000000010000000000000001000000008B
:10492A00000000010000000000000001000000007B
:10493A00000000010000000000000001000000006B
:10494A00000000010000000000000001000000005B
:10495A00000000010000000000000000E10000006B
:10496A00000000FFFFFFFF010000000000A0400060
:10497A0000A04000007F7FFFFF10102030FFFFFFE4
:10498A000A02050A02FFFF0302010104FFFF0301F5
:10499A0002040100007050309050141414141414BE
:1049AA00140C141C242A323A0101010101010100EC
:1049BA0000000000000001010101010101000102E3
:1049CA000304050600000000BC0A3B0B1F0BDD0AAE
:0C49DA00FB0AD20A00C18081000000002E
:00000001FF
